:10000000106A0020955A00008FF70100815A000005
:10001000815A0000815A0000815A0000815A000074
:10002000000000000000000000000000F15B000084
:10003000815A000000000000915B0000815A00001E
:10004000A55D0000A55D0000A55D0000A55D0000A8
:10005000A55D0000A55D0000A55D0000A55D000098
:10006000A55D0000A55D0000A55D0000A55D000088
:10007000A55D0000A55D0000A55D0000A55D000078
:10008000A55D0000A55D0000A55D0000A55D000068
:10009000A55D0000A55D0000A55D0000A55D000058
:1000A000A55D0000A55D0000A55D0000A55D000048
:1000B000AD210100A55D0000A55D0000A55D00006B
:1000C000A55D0000A55D0000A55D0000A55D000028
:1000D000A55D0000A55D0000A55D0000A55D000018
:1000E000A55D0000A55D0000A55D0000A55D000008
:1000F000A55D000041210200A55D0000A55D000096
:10010000A55D0000A55D0000A55D0000A55D0000E7
:10011000A55D0000A55D0000A55D0000A55D0000D7
:10012000A55D0000A55D0000A55D0000A55D0000C7
:10013000A55D0000A55D0000A55D0000A55D0000B7
:10014000A55D0000A55D0000A55D0000A55D0000A7
:04015000A55D0000A9
:1001580080EA101404F0F01480EA0410604081EA88
:10016800111404F0F01481EA0411614082EA1214B7
:1001780004F0F01482EA0412624083EA131404F0D3
:10018800F01483EA0413634080EA102404F47F44E3
:1001980080EA0420604081EA112404F47F4481EA63
:1001A8000421614082EA122404F47F4482EA042292
:1001B800624083EA132404F47F4483EA04236340FF
:1001C80081EA500404F0553480EA4400614083EA2F
:1001D800520404F0553482EA4402634082EA9004EF
:1001E80004F0333480EA8400624083EA910404F026
:1001F800333481EA84016340704700BF82EA900487
:1002080004F0333480EA8400624083EA910404F005
:10021800333481EA8401634081EA500404F05534A0
:1002280080EA4400614083EA520404F0553482EACB
:100238004402634080EA102404F47F4480EA0420E6
:10024800604081EA112404F47F4481EA042161407A
:1002580082EA122404F47F4482EA0422624083EA98
:10026800132404F47F4483EA0423634080EA1014CF
:1002780004F0F01480EA0410604081EA111404F0DC
:10028800F01481EA0411614082EA121404F0F014B7
:1002980082EA0412624083EA131404F0F01483EA39
:1002A80004136340704700BF2DE9F14F94464FEAAD
:1002B800930B8A68CB6808684968FFF749FF0BF118
:1002C800060E33E083EA134480EA134582EA1347B3
:1002D80046BA96EA3444604000F00F1684EA0634C1
:1002E80020F00F1684EA161054BA94EA01067240F8
:1002F80002F00F1486EA043622F00F1486EA14126C
:100308004CBA6540694001F00F1485EA043521F0C4
:100318000F1485EA14115CBA67407B4003F00F1490
:1003280087EA043723F00F1487EA1413BCE8F000B7
:100338006040694072407B4000F0E03400F01035C6
:1003480000F00F3040EA540040EAC50080EA90040B
:1003580004F0332480EA8400604001F0E03401F0C6
:10036800103501F00F3141EA540141EAC50181EA33
:10037800910404F0332481EA8401614002F0E034FE
:1003880002F0103502F00F3242EA540242EAC50286
:1003980082EA920404F0332482EA8402624003F081
:1003A800E03403F0103503F00F3343EA540343EA13
:1003B800C50383EA930404F0332483EA8403634087
:1003C80081EA324787EA134581EA354690EA06040E
:1003D80084EA034B82EA1B4280EA044484EA054427
:1003E80083EA144A85EA14448BEA044B84EA3744C6
:1003F80081EA0B4181EA164104EA0A00454082EA93
:1004080004082BEA080041408AEA0B0602EA0600C3
:1004180084EA34438AEA3A4603EA060778404540C4
:10042800414088EA38478BEA3B4007EA000985EAF9
:10043800090583EA0709464006EA0906714085EA84
:10044800010005EA3546464006EA314181EA304175
:1004580081EA364606EA304686EA3546344008EAF6
:10046800010886EA01052A4086EA364003405A40D8
:1004780081EA31431F407C4080EA030709EA070903
:1004880088EA0908544088EA020806EA0A0601EAE6
:100498000B018AEA0B0215408AEA3A4210404540AD
:1004A8008BEA3B4003405E404240174079404D4054
:1004B8004E40E443F64386EA18435D4085EA05402A
:1004C80083EA134386EA034183EA384284EA114304
:1004D80083EA04435FEA3343BEF1010E3FF6F2AE0E
:1004E8001ED4BCE8F0006040694072407B4020BCEC
:1004F800FFF784FE28606960AA60EB60BDE8F08FB2
:100508002DE9E0414FF2F00280EA1031114080EA13
:100518000130484041088208C3084FF0000E4FE7F9
:1005280000F0113001F0113102F0113203F01133F3
:1005380040EA410040EA820040EAC3004FF2F0027C
:1005480080EA1031114080EA01304840BDE8E0817E
:100558002DE9F04F02F11C050646074600EB850819
:1005680051F8040B043A46F8040BF9D14FF0010C8A
:10057800FFF7C6FF5FEA302080EA0C001ECF41403B
:100588004A4053405C401EC62000464517D04FEAFB
:100598004C0C1CF4807F18BFACF1E50C2C2DE7D077
:1005A8003C2D06D1FFF7ACFF06CF41404A4006C6B6
:1005B800100006CF41404A4006C61000D8E736E989
:1005C8000F00FFF7C5FD043D86E80F00F7D1BDE831
:1005D800F08F00BF2DE9F14F03F11C0402EB840CEE
:1005E8004FEA930B8A68CB6808684968FFF7B0FD43
:1005F8003CE9F0006040694072407B400BF1060E18
:100608004EE083EA134480EA134582EA134746BA68
:1006180096EA3444604000F00F1684EA063420F06D
:100628000F1684EA161054BA94EA0106724002F0D2
:100638000F1486EA043622F00F1486EA14124CBA14
:100648006540694001F00F1485EA043521F00F1464
:1006580085EA14115CBA67407B4003F00F1487EAFF
:10066800043723F00F1487EA141344BA44404DBAF0
:100678004D4056BA56405FBA5F4087EA174886EA47
:10068800174B84EA17464FEA38488BEA1B4485EA39
:100698001B4788EA1B4580EA3440694072407B402A
:1006A80000F0703400F0803500F00F3040EA44006C
:1006B80040EAD50080EA900404F0332480EA8400FC
:1006C800604001F0703401F0803501F00F3141EAEB
:1006D800440141EAD50181EA910404F0332481EA16
:1006E8008401614002F0703402F0803502F00F326C
:1006F80042EA440242EAD50282EA920404F0332430
:1007080082EA8402624003F0703403F0803503F01B
:100718000F3343EA440343EAD50383EA930404F01E
:10072800332483EA84036340C943DB4381EA00043A
:1007380083EA044686EA020183EA014382EA3345F2
:1007480083EA14435C4084EA00077FEA040A8AEAE1
:10075800024A8AEA010B87EA11488AEA374A80EA9C
:10076800060181EA1A418AEA030A04EA0A004540B6
:1007780088EA040707EA0B0041408AEA0B0608EA00
:10078800060084EA34428AEA3A4602EA06035840F6
:100798004540414087EA37438BEA3B4003EA00097A
:1007A80085EA090582EA0309464006EA0906714016
:1007B80085EA010005EA3546464006EA314181EA04
:1007C800304181EA364606EA304686EA3546344004
:1007D8000F4086EA010508EA050886EA3640024025
:1007E80088EA020881EA314213405C4080EA020349
:1007F80009EA030987EA0907674088EA040806EA5C
:100808000A0601EA0B018AEA0B0425408AEA3A44FF
:10081800204045408BEA3B4B02EA0B02564084EAF3
:100828000B04234059406E40694087EA364080EA0D
:10083800384080EA060380EA104481EA134585EAD5
:10084800344585EA17427D4082EA354180EA054011
:100858003CE9F0006040694072407B40BEF1010E07
:100868003FF6CFAE20BCFFF7C9FC28606960AA60DC
:10087800EB60BDE8F08F00BFFFF76ABE2DE9F00717
:1008880091E8F807B2E802105B1854EB0C04B2E8E0
:1008980002104D4156EB0C06B2E802104F4158EBDE
:1008A8000C08B2E8021059EB01095AEB0C0A80E86F
:1008B800F80780410130BDE8F00770472DE9F007DF
:1008C80091E8F807B2E802105B1A74EB0C04B2E87E
:1008D80002108D4176EB0C06B2E802108F4178EBDE
:1008E8000C08B2E8021079EB01097AEB0C0A80E8EF
:1008F800F80780414042BDE8F00770472DE9F0074E
:10090800524290E87800B1E880071740DB1918EAEE
:10091800020854EB080419EA020955EB09051AEA1A
:10092800020A56EB0A0678C090E87800B1E880071A
:1009380017407B4118EA020854EB080419EA020937
:1009480055EB09051AEA020A56EB0A0678C08041F7
:100958000130BDE8F00770472DE9F007524290E8F2
:100968007800B1E880071740DB1B18EA020874EB2F
:10097800080419EA020975EB09051AEA020A76EB76
:100988000A0678C090E87800B1E880071740BB41B4
:1009980018EA020874EB080419EA020975EB09055C
:1009A8001AEA020A76EB0A0678C080414042BDE89E
:1009B800F00770472DE9F00152424FF0040890E823
:1009C800300091E8C000A31B1340E41AF618EB1B93
:1009D8001340ED1AFF1830C0C0C1B8F10108EED1BC
:1009E800BDE8F001704700BF00B592E8DC072DE9CB
:1009F800DC07B1E8805702B4A7FB02510A95A8FBAF
:100A0800020BE7FB6310E9FB62B00B91A8FB0351F3
:100A1800EAFB6201E7FB64B5E7FB6605E8FB6615E0
:100A2800CDF830B0A9FB03B6EAFB6316ECFB6356BE
:100A3800E8FB640BE9FB641BEAFB645BECFB646B9F
:100A48000D90ACFB0230059CEEFB6250E9FB646044
:100A5800EAFB64B0E7FB6431E8FB6451069CE8FB01
:100A68006461E9FB64B1EAFB64010E93A7FB0432FD
:100A7800079CE7FB6462E8FB64B2E9FB6402EAFBFB
:100A88006412049CE9FB6453EAFB6463089CE7FB7B
:100A980064B3E8FB6403E9FB6413EAFB64230F9582
:100AA8005DF8049B99E80006DDF80080A9FB08546E
:100AB800EAFB68B4DDF81080ECFB6804EEFB681410
:100AC800E9FB6824EAFB6834DDF80480EEFB68651E
:100AD800E9FB68B5EAFB6805DDF81480ECFB6815EE
:100AE800EEFB6825E9FB6835EAFB68450F96DDF8FB
:100AF8000880AEFB0876E9FB6806EAFB6816DDF8B5
:100B08001880ECFB6826EEFB6836E9FB6846EAFBD2
:100B18006856DDF80C80ECFB68B7EEFB6807E9FB6C
:100B28006817EAFB6827DDF81C80ECFB6837EEFBEA
:100B38006847E9FB6857EAFB686708B000BD00BF73
:100B48002DE9F14F87B0FFF74FFFDDF81C8008F162
:100B5800200888E8FF00FFBC87E87F08BDE8F08F21
:100B680000B591E89857A3FB03520195A3FB040134
:100B7800E3FB6420E3FB67100292A3FB0752E3FB4D
:100B88006802E4FB6415E3FB6805E3FB6925039150
:100B9800A4FB07B6E3FB6926E3FB6A56E4FB670B95
:100BA800E4FB682BE3FB6A5BE3FB6C6B0490A4FB40
:100BB8000810E4FB6950E3FB6C60E3FB6EB0E7FBF5
:100BC8006721E4FB6951E4FB6A61E3FB6EB1E4FB76
:100BD8006E010592A7FB0832E4FB6A62E4FB6CB283
:100BE800E4FB6E02E7FB6E12E7FB6853E7FB696301
:100BF800E4FB6CB3E7FB6C03E7FB6E13E8FB6E23C7
:100C08000695A7FB0954E7FB6AB4E7FB6C04E8FB0D
:100C18006C14E8FB6E24E9FB6E34E8FB6865E7FBBF
:100C28006AB5E8FB6A05E8FB6C15E9FB6C25E9FB8E
:100C38006E35EAFB6E450796A8FB0976E8FB6A065F
:100C4800E9FB6A16E9FB6C26EAFB6C36EAFB6E46A2
:100C5800ECFB6E56E8FB69B7E9FB6907E9FB6A1725
:100C6800EAFB6A27EAFB6C37ECFB6C47ECFB6E5738
:100C7800EEFB6E6700BD00BF2DE9F14F87B0FFF7AF
:100C88006FFFDDF81C8008F1200888E8FF00FFBC32
:100C980087E87F08BDE8F08F30B44FF0000310F804
:100CA800014B11F8015B013A84EA050443EA0403A5
:100CB800F5D1A3F101034FEAD37030BC704700BFF0
:100CC8004FF0000310F8012B013943EA0203F9D170
:100CD800A3F101034FEAD370704700BF30B411F895
:100CE800014B12F8015B6C4000F8014B013BF6D157
:100CF80030BC70472DE9F00791E8F807B2E8021018
:100D08005B1854EB0C04B2E802104D4156EB0C068C
:100D1800B2E802104F4158EB0C08B2E8021059EB48
:100D280001095AEB0C0A8941B3F1FF3374F1FF341E
:100D380075F1FF3576F1000677F1000778F10008C4
:100D480079F101097AF1FF3A51F100015B184C4140
:100D58004D4156F1000657F1000758F1000859EBCC
:100D6800D1795AEB010A80E8F807BDE8F007704727
:100D78002DE9F00791E8F807B2E802105B1A74EB66
:100D88000C04B2E802108D4176EB0C06B2E80210B2
:100D98008F4178EB0C08B2E8021079EB01097AEB85
:100DA8000C0A89415B184C414D4156F1000657F138
:100DB800000758F1000859EBD1795AEB010A80E88D
:100DC800F807BDE8F007704718EB040859EB050968
:100DD8005AEB060A5BEB070B5FF0000C4CF1000CBA
:100DE80018EB050859EB06095AEB070A5BEB070BEA
:100DF80050EB0C005FF0000C51EB0C0152EB0C02B5
:100E080063414CF1000CB8EB070879F100097AF15D
:100E1800000A7BEB040BA841B141A241B3416CF13C
:100E2800000CBBEB050BB041B941AA41BB416CF1C9
:100E3800000C4CF001068CF0020718EB060859EB81
:100E48006C095AEB6C0A7BEB6C0B70EB6C0471EB66
:100E58006C0572EB670653EB6C076CEB6C0C18EBCC
:100E68000C0059EB0C015AEB0C025BF1000354F136
:100E7800000455F1000556EBDC7657EB0C0770477C
:100E88002DE9F14F87B0FFF7AFFDDDF81080DDF8F1
:100E98001490DDF818A0FFF797FFBDE8000FFFF7E3
:100EA80093FF03B05DF8048B88E8FF00BDE8F08F7E
:100EB8002DE9F14F87B0FFF753FEDDF81080DDF81C
:100EC8001490DDF818A0FFF77FFFBDE8000FFFF7CB
:100ED8007BFF03B05DF8048B88E8FF00BDE8F08F66
:100EE80010F8012B11F8013B012A28BF9A42F7D0CC
:100EF800D01A7047034611F8012B03F8012B002A7A
:100F0800F9D17047034613F8012B002AFBD1181AB0
:100F180001387047000000000022F0B5114640F685
:100F2800034087B007F046F90446002840F09F8048
:100F380006F0E2FD214641F2030005AA07F03AF95E
:100F48000446002840F09380059A4A4DD16805F17F
:100F58007803D1F80100D1F8051003C3104605F055
:100F68006BFB214641F2010005AA07F023F904466C
:100F780000287CD10598C3685A7885F870205A886B
:100F8800A5F872201A7985F87120B3F80720A5F81A
:100F98007420B3F80530A5F8763005F04DFB2146EE
:100FA80041F2020005AA07F005F9044600285ED1BF
:100FB800059F05F18006FA68531C413234461868CB
:100FC8005968083303C493422646F7D1384605F0DA
:100FD80033FB08F06BFA0446002848D195F88A30AC
:100FE8009A060ED4572124481EF08DF995F87C30C6
:100FF8005B0645D4452121481EF085F96FF012049F
:1010080035E04FF0FF304FF0FF3106F095FD064612
:10101800002800F0468107210C3005F023FC452309
:1010280003700A23C0F80240847144700471224698
:10103800C370314640F6334007F0BCF80446B0B9F7
:101048004FF0FF304FF0FF3106F076FD06460028DE
:1010580000F0278101210C301EF045FC2246314664
:1010680040F6314007F0A6F804460028BED02046D6
:1010780007B0F0BD0000002076770200A9770200D3
:10108800002142F2030005AA07F094F8044600285C
:10109800EDD1059AA84BD168D1F80100D1F8051017
:1010A80003C3104605F0C8FA214642F2020005AA19
:1010B80007F080F804460028D9D1059EF468B4F8F2
:1010C80001309AB282B1E27872B1A5F80431E278BF
:1010D800032A04D00323572198481EF014F9E27814
:1010E8009748114622F03DF8304605F0A5FA1F232F
:1010F80095F87C60A5F8203116F0200619D14FF03C
:10110800FF304FF0FF3106F017FD0446002800F0CD
:10111800C88002210C3005F0A5FB0123214603708D
:101128004670324640F66D4007F044F80446002801
:101138009DD195F89C301F0712D5002142F21C0062
:1011480005AA07F037F80446002890D10598C36827
:10115800D3F80120D3F80530C5E9382305F06CFA37
:1011680095F8D8309E0626D50DF1120104A807F08F
:1011780003F9044600287FF47AAF4FF0FF304FF0B0
:10118800FF3106F0D9FC0646002800F08A800421C9
:101198000C3005F067FBBDF8103022460380BDF81F
:1011A80012303146438042F2240007F003F8044627
:1011B80000287FF45CAF95F8D8305C0610D5002184
:1011C80042F22A0005AA06F0F5FF044600287FF43B
:1011D8004EAF0598C3685B7885F8223105F02CFA84
:1011E8004FF0FF304FF0FF3106F0A6FC0446002810
:1011F80057D008210C3005F035FB95F8D81040F28F
:10120800022311F0400F08BF0323024688074CBF92
:1012180043F02C0043F00C0095F8D9308F0648BFF6
:1012280040F0400013F0090F18BF40F40060CE07EB
:1012380048BF40F0100000211EF095FC2146002216
:1012480042F2010006F0B6FF044600287FF40FAF13
:1012580095F87C30B5F80411980625D4C9B941F23F
:10126800050005AA06F0A6FF044600287FF4FFAE95
:10127800B5F80431059C4BB9E368B3F80120A5F82B
:1012880004219A882E48114621F06BFF204605F06C
:10129800D3F94FF0FF304FF0FF3106F04DFC044614
:1012A80058B96FF06804E2E60029F2D145212548D3
:1012B8001EF029F86FF00404D9E608210C3005F077
:1012C800D1FA95F8D8300246D9072DD44FF00051FD
:1012D8001D481EF048FC2146002240F6014006F059
:1012E80069FF044600287FF4C2AE014605AA4FF6FE
:1012F800014006F05FFF68B3572114481EF003F859
:101308001EF0EBFD044600287FF4B1AE09F04AFC5C
:10131800044600287FF4ABAEEB79002B79D1492144
:101328000B481DF0F0FFA2E601A1D1E90001D0E7CA
:101338009088000200800020D8000020D2770200A8
:10134800080100201D78020010880002457802007C
:1013580037790200059E4921F4683148B4F8013014
:10136800032B96BF2F4A304A52F823201DF0CBFF9B
:10137800B4F80120B4F80330022A2AD1052B28D862
:101388002A4A52F82320492129481DF0BCFFD4F8E5
:10139800091063790291B4F80710032B019198BFE3
:1013A800244AA17994BF52F823201F4A2248009169
:1013B80049211DF0A8FF304605F03EF900214FF6FF
:1013C800024005AA06F0F6FE044620B157211B4844
:1013D80094E7154AD7E70598C368B3F80130A5F82C
:1013E800C13005F029F995F8C1305B0788D5214649
:1013F8004FF6034005AA06F0DDFE10B1572110484C
:101408007CE70598C3685B7885F8C03005F014F967
:1014180076E708210B481EF093FB06F06FFC26E6E2
:101428006E780200C84E020012750200B04E02002B
:101438008C780200A04E0200A9780200DB78020036
:1014480009790200D4000020F0B506460F460020B6
:10145800294995B007F046FD014610B127481DF00F
:10146800C6F9182200210EA822F056FF224B0025AB
:101478000D9307330F9306F0A3FC40F2C133ADF888
:10148800083002AB119304238DF804306B44129397
:1014980003AB04930123CDE905350223ADF81C30D5
:1014A8000DF10703089320238DF82430144B139073
:1014B8000A93144B07A90B9304A80DAB8DF80050A1
:1014C800CDF838D08DF807500C9320F006FD041E97
:1014D80006DA21460C481DF08AF9204615B0F0BD01
:1014E8003A46314604A820F0BFFC041E02DA214621
:1014F8000648F0E72C46F0E7D23B002032580200BD
:10150800169F0200FF1F02005B580200815802006C
:101518004FF4807307B5164801931DF068F9002150
:1015280014481CF0DDF9002802DA13481DF05FF9B1
:10153800124801A9FFF788FF002802DA10481DF0B9
:1015480056F901990D481CF003FA002802DA0D48F3
:101558001DF04DF91CF09CFA002802DA0A481DF02B
:1015680046F90A481DF043F903B05DF804FB00BFD3
:10157800A95802002BE40100C2580200D23A002008
:10158800E1580200025902001759020030590200BE
:1015980000487047D23B002030B5104D89B003ACED
:1015A8000FCD0FC42B680E492360012403220D4B75
:1015B800009403A807F0E2FD014658B110F1780F36
:1015C80003D109481DF013F902E008481DF00FF98E
:1015D80009B030BD064B07481C70F3E7404B0200CA
:1015E800404C0200384C0200485902005F59020082
:1015F800013C00208559020070B50C460546FFF7EE
:10160800C7FF06460D481DF0F2F82378012B04D0D9
:101618000B48BDE870401DF0EAB862780AB1094885
:10162800F7E7F11D284607F083FC014620B1BDE825
:10163800704005481DF0DBB80448EAE7A7590200E6
:10164800C0590200DD590200FC5902001E5A02006E
:1016580000B5F1B04FF4E0720021684622F05CFE5C
:10166800184B194A68933F23ADF8A43140F201138F
:10167800ADF8003003238DF8033008238DF82B30A4
:1016880001238DF81C318DF822318DF85C318DF8ED
:10169800BD310E4B69466E930D4B0E484A926A93C4
:1016A80003F066F950B10C490C484FF401721DF073
:1016B800B4F84FF4017108481DF0A6F871B05DF850
:1016C80004FB00BF8D5F0200811C0000B11E0000FA
:1016D80049180000A4010020435A0200895A020058
:1016E80013B50C4608F0B4FBCDE900040022002332
:1016F8006946084821F0EDFC10B107481DF077F85D
:10170800044B5B6A012B02D1044815F0A1FB02B01F
:1017180010BD00BFE4090020A15A02008019002072
:1017280070B503788AB004460E4607AD032B20D85F
:10173800DFE803F002191B1D11492846FFF7DAFB01
:10174800059563781E210493A37830460393E378C4
:101758000C4A02932379019363790093A3791CF0CF
:101768005DFB0AB070BD0849E7E70849E5E70849A5
:10177800E3E70A212846074A1CF050FBE0E700BFD0
:10178800CE5A0200F75A0200D55A0200DC5A02006B
:10179800E65A0200F05A020030B515468BB00C46E6
:1017A8001EF0B9FC02A9FFF7BBFF35B9224607486E
:1017B80002A91DF01CF80BB030BD054B2246009362
:1017C80004482B4602A91DF012F8F4E71A5B020040
:1017D800FA8A0200395B020010B50C4688B01EF088
:1017E8009AFC6946FFF79CFF2246694602481CF0AE
:1017F800FEFF08B010BD00BF615B020000B589B0F4
:101808001EF089FC6946FFF78BFF694602481CF009
:10181800EEFF09B05DF804FB845B020010B50C46CE
:1018280088B01EF078FC6946FFF77AFF22466946C1
:1018380002481CF0DCFF08B010BD00BF9B5B020033
:1018480070B5174C054623680846994288B008D0F9
:10185800A368994210D0134808B0BDE870401CF046
:10186800C6BF00261EF057FC6946FFF759FF2DB189
:10187800012D0CD008B070BD0126F3E769460A486F
:101888001CF0B5FF012304EBC6042371F2E7694697
:1018980006481CF0ACFF04EBC6040023F5E700BFC4
:1018A800A4190020B15B0200E25B0200F85B0200B1
:1018B80030B50D46044689B01EF02DFC6946FFF789
:1018C8002FFF694617482A46174B1CF090FF214600
:1018D800164803F027F810B115481CF088FF154B7F
:1018E80019689A688C4207D049B9944217D052B9FE
:1018F800012020F0A2FA06E000211960F5E79442E1
:1019080001D100229A600C4C237833B10B481CF0AB
:101918006EFF07F05BFD0023237009B030BD002285
:101928009A60E5E7105C0200FA8A0200A401002030
:10193800385C0200A4190020013C00206A5C020007
:1019480030B50D4689B004461EF0E5FB6946FFF741
:10195800E7FE3DB12A466946134B14481CF047FF81
:1019680009B030BD694612481CF041FF012020F043
:1019780061FA21460F4802F073FFC0B278B90E4BE6
:101988001A6812B19A6832B9012243F8324003EB5F
:10199800C20300221A710022084B1A70E0E70848B7
:1019A8001CF025FFDCE700BFFA8A0200905C020009
:1019B800B35C0200A4010020A4190020013C00200F
:1019C800C15C020030B504468BB00D460F4869462D
:1019D80014F0D0FBB8B9009BA34208D1204608F008
:1019E8005BFA002200236946084814F001FB2046F0
:1019F8001EF091FB02A9FFF793FE2A46044B054807
:101A080002A91CF0F4FE0BB030BD00BFE4090020B1
:101A1800FA8A0200F05C020070B51B4C86B021689F
:101A280049B30025194E2279334613F8010BD6F82D
:101A380001608DF8100000209B888DF81100CDF80A
:101A48001260ADF816306AB100900823104804AA55
:101A580003F0ACFB014678B10E4806B0BDE8704013
:101A68001CF0C5BE0823CDE901220093084804AB49
:101A780003F0ECFAEEE70D4608341DB9216801259C
:101A88000029CFD106B070BDA4190020FA3B002070
:101A9800A4010020175D020010B4027802F12003AF
:101AA800DBB2072B0E4B09D80121E03A91401A7896
:101AB80022EA01021A7010BCFFF7AEBF18460021D7
:101AC80010F8014F944206D001310629F8D1054893
:101AD80010BC1CF08CBE00220B445A70EBE700BF10
:101AE800FA3B0020325D020000B58BB00A48694617
:101AF80014F040FB68B900981EF00DFB02A9FFF72F
:101B08000FFE0648019A02A91CF071FE04481CF059
:101B18006EFE0BB05DF804FBE40900209B5B02003D
:101B28004E5D020037B505460022002369460E487F
:101B380014F05EFA88B9009C204685B11EF021FB9E
:101B480021460A481CF053FE009808F0A5F9064BF8
:101B58005B6A13B1064815F07BF903B030BD1EF07F
:101B680018FB21460348EDE7E40900207E5D0200EA
:101B780080190020965D020010B4027802F120035B
:101B8800DBB2072B0D4B09D80121E03A01FA02F22A
:101B980019780A431A7010BCFFF73EBF1846002197
:101BA80010F8014F34B101310629F9D1044810BCAD
:101BB8001CF01DBE0B445A70EDE700BFFA3B002035
:101BC800AF5D020070B505460C46244B5A6A244B9B
:101BD8007AB100EA010212F0010005D00120187064
:101BE800BDE87040FFF79EBF960702D501221A7024
:101BF800F6E71A7822B1A10702D000221A7070BD48
:101C0800E20705D5174EEB07306814D5FFF7B4FF88
:101C1800A10704D5AA07144818D5FFF7ADFF230775
:101C2800EDD5124B1A68A2B19B6893B1BDE870401C
:101C38000F481CF0DCBDFFF72FFF33680D495A1C15
:101C48008A420ABF053B32603360E1E7FFF724FFB1
:101C5800E5E7BDE87040FFF79FBC00BFE40900203E
:101C6800F93B002078010020F05F0200A419002051
:101C7800C95D0200F75F020010B5044688B0084647
:101C88002AB90C4808B0BDE810401CF0B0BD1EF0E1
:101C980042FA6946FFF744FD694607481CF0A7FD6C
:101CA800636802201978C1F3400110F0A7F908B061
:101CB80010BD00BF045E0200335E0200F7B5774E28
:101CC800774F784D306883681B68002B6ED00DF114
:101CD80006019847002869D138469DF806101CF07F
:101CE80086FD9DF80630A3F10802772A5ED8DFE862
:101CF80002F09F5DA75D5D5D5D5D5D5D5D5D5D5D48
:101D08005D5D5D5D5D5D5D5D5D5DA3BD83C16FC551
:101D1800C9B5CDD13C97B7A9B9BBA5696969696946
:101D28006969696987B37FAB7B7773626262626254
:101D3800626262626262626262626262626262627B
:101D48006262626262ADB1AF6B9B5D4646464646D3
:101D5800464646464646464646464646464646461B
:101D68004646464646938B8F5D9F25236FF05A045F
:101D78008DF807302B7843F002032B7003E05D3BAE
:101D88005CB28DF807300DF10700FFF7F5FE002172
:101D98004FF4A47016F032FA0DF10700FFF77CFE3D
:101DA800002CBEBF2B7823F002032B7000212120CA
:101DB80016F024FA86E7A3F13D02D3B262F07F025F
:101DC80054B2D5E7133BDBE723236FF05C04CFE77E
:101DD80021236FF05E04CBE71F236FF06004C7E791
:101DE80038236FF04704C3E737236FF04804BFE791
:101DF80036236FF04904BBE734236FF04B04B7E791
:101E080033236FF04C04B3E731236FF04E04AFE790
:101E180030236FF04F04ABE72F236FF05004A7E790
:101E28002E236FF05104A3E72D236FF052049FE790
:101E38002A248DF80740A6E72C24FAE72724F8E798
:101E48002824F6E72D24F4E72E24F2E72F24F0E7E0
:101E58003024EEE73124ECE73324EAE73424E8E7DA
:101E68003624E6E73724E4E73824E2E71E236FF058
:101E780061047DE720236FF05F0479E722236FF088
:101E88005D0475E724236FF05B0471E726236FF088
:101E980059046DE727236FF0580469E7A01900205B
:101EA800185E0200FA3B002010B5044688B00846C8
:101EB8002AB90C4808B0BDE810401CF098BC1EF0C8
:101EC8002AF96946FFF72CFC694607481CF08FFC85
:101ED800636802201978C1F3400110F08FF808B048
:101EE80010BD00BF045E0200255E020008B5032095
:101EF8001FF0A0FF054B1A680AB19B6823B9044874
:101F0800BDE8084014F0A4BF08BD00BFA419002014
:101F18009019002038B532481CF069FC31480FF0A0
:101F2800E1FF014610B130481CF061FC0FF0AAFF38
:101F3800014610B12D481CF05AFC2D482D4B186055
:101F480021F089F820B92C481CF051FC002038BD3C
:101F58002A481CF04CFC2A4808F0E6FD08B129483C
:101F6800F2E7294808F0FAFD044608B12748EBE7EC
:101F7800FFF76EFB204606F043FA044620B10146FF
:101F880023481CF034FCE1E722481CF030FC1DF02B
:101F98001FFA2149214814F067FEFFF7B9FA2049D2
:101FA800204814F061FE204D2B7803F0FF00A3B108
:101FB8000134002004F0010110F020F800214FF452
:101FC800004016F01BF901F009FC013810F0FF0081
:101FD80008BF642001F008FCE6E71FF02EFFEDE7DC
:101FE800575E0200CD1B00008B5E0200AA5E020055
:101FF800EC440200A0190020C65E0200DD5E02006B
:102008008C010020F75E02007C010020245F0200A2
:10201800565F0200765F02003DE40100901900203F
:10202800F11A000080190020013C002070B589B326
:102038000668012230461CF03AFA0146044630464A
:102048001CF0FDF9C30708D41349AF2213481CF04C
:10205800E4FBAF2110481CF0D7FB214630461CF0AA
:1020680004FA25182946002230461CF0E8F92D1AF2
:10207800AC4206D00849B72208481CF0CEFBB7216D
:10208800E8E7214630461CF0F6F92146BDE87040E5
:102098001CF02BBB70BD00BFF75F0200895A02001D
:1020A800B2F5802F2DE9F0410CD2042A20D83F49FF
:1020B80040F21A223E481CF0B0FB40F21A213B487D
:1020C8001CF0A2FB0823D21ACC1D114424F00704EB
:1020D80021F00701091B17294FEAD1060AD833490D
:1020E80040F2232232481CF098FB40F22321E6E715
:1020F8000423E8E70025046031462046A660E56031
:102108001CF0DFF9B6F5004F2CBF08230423421D4D
:1021180092000833D11DDB0803EBD103B3424FEA29
:10212800D10739D801302946A2F1100204F1100074
:10213800B8BF2A4622F0F0F83A46294620461CF055
:10214800B2F92B462A46294620461CF083F9A6EB0D
:1021580007082046294601221CF08DF942463946D7
:102168001CF0A1F93B462A46394620461CF072F974
:10217800314620461CF097F943462A463146204608
:102188001CF068F93146204601221CF074F93946E2
:10219800BDE8F0411CF067BA04494FF40E720448D8
:1021A8001CF03BFB4FF40E7189E700BFF75F02009C
:1021B800895A0200014B1B68184700BFE80300203A
:1021C800014B1860704700BFE803002030B585B0A8
:1021D80004460D4610220021684622F09DF802238D
:1021E8008DF80230044B2A462146684601931BF0BD
:1021F800A7FE05B030BD00BFBD21000080B5054673
:102208000E461746984616F07BF8034622F094F8D7
:102218000446DFF81890424649F8003039463046FF
:10222800A84754F8090003F099FC00BF0800000013
:10223800044608B5EFF31183402383F31288BFF3F4
:102248006F8F72B60FF050FB204604F083FC0348F2
:102258001CF0CDFA1DF0B0FAFCE700BF2B600200BD
:102268002DE9F84F0446A38B08461907164612D4E1
:10227800022803F0070162D120461CF06FFB88B1E9
:102288000138042800F22581DFE810F05900230105
:102298007E00C800F50001280CBF43F0100143F090
:1022A8002001A18304F1140016F05AFA002800F066
:1022B800AB8086F31188BFF36F8FBDE8F88F03F00A
:1022C8000702501F01281ED80020062A2768C4E9E3
:1022D800000014D13A4603E0E08B0130E083126835
:1022E800002AF9D123F0070343F002022046A28313
:1022F8001CF034FB90B342F02002A2832EE023F0BE
:1023080007039AB2F2E7042A33D123F007039AB2FB
:102318002046A2831CF022FB10B142F02002A283C7
:10232800A38B03F00709894540F0DC80A18BCA061E
:1023380040F1218121F01003A38301F00701D4F8B3
:102348001880A38BB8F1000FB9DA0022276823F0B0
:102358000703C4E9002243F00103A383A38B03F01E
:102368000709894540F0BF80002FDFD00025AA4625
:1023780040E0854940F21B1284481CF04EFA40F2B6
:102388001B1181481CF040FA41B17F494FF4AB72F0
:102398007E481CF042FA4FF4AB71F2E7236843B968
:1023A800794940F2571279481CF037FA40F2571130
:1023B800E7E723691D6845B973494FF4AD7273485F
:1023C8001CF02BFA4FF4AD71DBE70F4688464FF04F
:1023D8000609A38B23F0070343F006039BB2A383EC
:1023E800A268002A40F08180002F40F08180002DF3
:1023F8009CD0BA4643F0080304F1140B5846A38353
:1024080016F0AEF9002875D161494FF49A725F4809
:102418001CF003FA4FF49A715D48B3E7022908D01B
:10242800594940F25D1259481CF0F7F940F25D1124
:10243800A7E7E78B47B154494FF4AF7253481CF0F4
:10244800ECF94FF4AF719CE723695D6845B94E49D3
:1024580040F261124D481CF0E0F940F2611190E73A
:10246800A38BB84623F0070343F004039BB24FF055
:102478000409A383B4E7012908D043494FF4B27291
:1024880042481CF0CAF94FF4B2717AE7236843B99D
:102498003D4940F265123D481CF0BFF940F2651114
:1024A8006FE723699D6845B937494FF4B4723748D7
:1024B8001CF0B3F94FF4B47163E70027A38BB84657
:1024C80023F0070343F005039BB24FF00509A383EC
:1024D80086E72D4940F26B122C481CF09EF940F219
:1024E8006B114EE7002700257AE74FF0010A81E7D4
:1024F80092467FE786F31188BFF36F8FBAF1000F1A
:1025080016D147BB15B120462249A847EFF31186DB
:10251800402383F31288BFF36F8F584616F012F9E1
:1025280008BB1B49882219481CF077F9882173E7F2
:10253800A1680029E5D00E680029E2D043464A4642
:102548002046D1F804A0D0471EB1336831461E4654
:10255800F2E73346FAE7394643464A4620463F689B
:102568001CF028FACDE7584616F010F9A38B23F093
:102578000803A383DAE68B067FF594AE21F02003E7
:10258800A38301F0070177E654600200895A02002C
:1025980079600200A1250000F8B504460D4600F157
:1025A8001406EFF31187402383F31288BFF36F8F6C
:1025B800304616F0C7F840B909490A4888221CF085
:1025C8002CF9882106481CF01FF9304616F0DEF871
:1025D800A5613A462046BDE8F8400121FFF740BE14
:1025E80079600200895A02002DE9F04704460F4637
:1025F8001CF0D0F9051E5DDB04F11409EFF3118A14
:10260800402383F31288BFF36F8F484616F09AF879
:10261800804638B93349882233481CF0FEF88821AF
:1026280030483CE0484616F0B1F84FF6FF72E38BAD
:10263800A68B934206F007063FD0022E10D13546EE
:102648000133E383484616F08BF800283BD125492F
:102658004FF49A7224481CF0E0F84FF49A71DFE7BF
:10266800062E13D8DFE806F0092C12120904090017
:102678006FF085054FF00008E4E700233B606368CE
:102688007BB9C4E900777EB13546F3E717491648A8
:102698004FF4E4721CF0C1F84FF4E47113481CF0D5
:1026A800B3F81F606760EEE7524602212046FFF745
:1026B800D7FD35462846BDE8F0876FF00A05D9E70B
:1026C8006FF00405D6E78AF31188BFF36F8FB8F16E
:1026D800000FEFD000233246394620461CF06AF935
:1026E800E8E700BF79600200895A020054600200DE
:1026F800F8B5054600F11406EFF31187402383F37C
:102708001288BFF36F8F304616F01CF838B920498D
:10271800882220481CF081F888211D4825E0304691
:1027280016F034F8AC8B04F00704022C12D0012CFC
:102738000CBF6FF004046FF08504304616F010F8F3
:1027480008BB13494FF49A7212481CF066F84FF40C
:102758009A71E2E7EB8B53B90F490E4840F2EF123A
:102768001CF05BF840F2EF110B481CF04DF8013BF0
:102778009BB2EB83002BE0D13A4621462846FFF76F
:102788006FFD2046F8BD87F31188BFF36F8FF8E718
:1027980079600200895A0200546002002DE9F04174
:1027A8000E460546002845D0002943D000F11407FD
:1027B800EFF31188402383F31288BFF36F8F3846F5
:1027C80015F0C0FF38B91D4988221D481CF025F8AE
:1027D80088211A4816E0384615F0D8FF31462846B1
:1027E800AC8B1CF0A0F878B104F00704231F022B6F
:1027F8000CD91449124840F22D221CF00EF840F270
:102808002D2110481CF000F86FF07704384615F0B9
:10281800A7FF40B909494FF49A7209481BF0FDFF18
:102828004FF49A71D5E788F31188BFF36F8F20466C
:10283800BDE8F0816FF01504F9E700BF7960020088
:10284800895A02005460020008B54268034602F043
:102858000302022A81600AD0032A4FF0000103D044
:10286800012A0AD1596006E01868596008BD18683D
:1028780000225A6050B90020F8E706490648452268
:102888001BF0CBFF452103481BF0BEFF16F0D6F91D
:10289800F1E700BFA6600200895A02002DE9F34162
:1028A80006460F4615464FF000082A46304601A94D
:1028B8001CF0D5F8044640B102463946019821F08B
:1028C80004FD2D1BA0442744EFD142463046311D5C
:1028D8001CF0E3F840B10649064848221BF09DFF6A
:1028E800482103481BF090FF404602B0BDE8F08144
:1028F800CC600200895A02002DE9F34107460E46D2
:1029080015464FF000082A46384601A91CF0B6F8CB
:10291800044648B12EB102460199304621F0D5FC53
:1029280026442D1BA044EED14246384607F10A0141
:102938001CF0B3F840B10649064863221BF06DFF4E
:10294800632103481BF060FF404602B0BDE8F081F8
:10295800CC600200895A02002DE9F7430F4606466B
:102968000821C06A1CF01BF980463C68DFF84890D3
:10297800241A3C6004EA0905AC4203D8002003B0DD
:10298800BDE8F08308236A46214630461CF09FF8CC
:102998000028F4D1694630461CF00BF940B1BDF867
:1029A8000230BDF8042005EA090513441D443C60C3
:1029B800A4EB0804E0E700BF0000FFFF73B504467E
:1029C8004FF6FF72C06A08211CF0E9F80025636819
:1029D8000F4EADF800208DF80620E2681918334034
:1029E8001344181A60606846ADF80210ADF8045038
:1029F8001CF0CCF8694620461CF09BF92046211DA6
:102A08001CF09EF8284663683340A36002B070BD8E
:102A18000000FFFF2DE9F047044688B000F11407D5
:102A2800384620F065FBA06A8368DB689847E06257
:102A380048B945218B481CF066FC6FF015052846FF
:102A480008B0BDE8F087A06A8368DB689847036828
:102A5800013B1F2B02D945218348ECE7E268B2F518
:102A6800803F06D94FF48033452180481CF04BFC49
:102A7800E3E7A06A216805AA1EF027FF10B14521E7
:102A88007B48D8E7E5682DB1069BB5FBF3F203FB5D
:102A9800125515B145217748CDE7238A012B02D875
:102AA80045217548C7E7E36A009593F805904FF00C
:102AB800FF334FF0FF32384613F09AFB0821E06AE3
:102AC8001CF06DF8A8460646238A1FFA85FA534576
:102AD80008D8238A434523D1384613F03FFC6FF0CA
:102AE8002C05ACE7E1682B04891B13FA81F14A46EF
:102AF8000823204600911BF0F8FF78B1694620466C
:102B08001CF01EF808F1010808234A4620460099DF
:102B18001FFA88F81BF0E9FF0028DAD00135D3E75F
:102B280053450BD1009908234A462046891B1BF0C0
:102B3800DCFF18B9694620461CF002F869462046B1
:102B4800FFF70AFF054618B1384613F007FC76E789
:102B5800009B4FEA13484FEA08486360C4F80880AE
:102B6800D4E9011399420FD30823204601AA1BF088
:102B7800AEFF05460028E7D101AB13F8012B9145BC
:102B88003CD10135082DF8D1636869461B0C1B043C
:102B9800204600931BF0D4FF4A462046E36800997C
:102BA8001BF0A3FF051ECFDB636879D04FF6FF79D2
:102BB80006EB0308E3681FFA88F29B1B9A42CDF8DC
:102BC800008037D349212D481CF09DFB20466168C1
:102BD8001BF0C3FF05460028B6D16368284AE168A0
:102BE80013400B44A3EB4603636013402046A360E5
:102BF8001CF0C7F80546002D6ED0A5E7204601A9B0
:102C08001BF0D7FF626810B9921B6260A8E7BDF895
:102C18000850BDF80610E06AC4F8088029441BF083
:102C2800BEFF40449042A060EED1002DECD06FF082
:102C38001C0576E008234146204603AA1BF047FFFF
:102C48000546002880D1204603A91BF0B2FF38B101
:102C5800BDF80C304B4503D1BDF81030002B66D0C1
:102C6800B044A7E710610200376102005961020011
:102C780087610200A4610200BD610200486202008F
:102C88000000FFFF4A4620465B1A1BF02EFF051E78
:102C9800FFF65AAF08D0E26AA36812681344A3602B
:102CA800D4E901318B42EDD86168E36801EB460253
:102CB8009A42A0D1DFF89880A26801EA08039A42F4
:102CC80099D020461BF049FF054600287FF43CAF09
:102CD800636803EA0803A360E368A288A3EB4603DA
:102CE8009A421AD0384613F039FB01234921228A27
:102CF8001848A374E3681CF006FB6268492193B284
:102D08001548120C1CF0FFFAA268492193B2134827
:102D1800120C1CF0F8FA002591E620461CF01AF86F
:102D28000546384613F01AFB002DDED087E6492108
:102D38000B481CF0E8FA636869461B0C20461B0424
:102D480000931BF0FDFE204600991BF006FF51E79B
:102D58000000FFFFE5610200016202001862020044
:102D68002E6202002DE9F04F1D46837C91B0044687
:102D7800029100924BB9452163481CF0C4FA6FF0E8
:102D88000C06304611B0BDE8F08FC26A0821104623
:102D98001BF005FF2946019010461BF000FFE36871
:102DA800019A0746A3EB82039D4200F2A9801DB158
:102DB800009B002B00F0A48063680593204606AAB8
:102DC80005A9DDF814A01BF031FF06460028D8D16C
:102DD800BDF81830029A934206D06268059B9A4261
:102DE800ECD1002D36D1CCE7204606A91BF0E1FE38
:102DF8000028F2D0BDF81A80BDF81C3045B3AB42AC
:102E080028D14FEA1A4A4FEA0A4AD044AA46E36A46
:102E1800DDF800B01B685B4203F020030393DDF884
:102E28000C904146D14528BFD14620464B4608AABA
:102E38001BF04DFE00284AD14A46584608A921F001
:102E4800B0F938B9BAEB090AC844CB44E7D198E7D6
:102E5800002B96D0002F3DD1B84604F1140A4FF04C
:102E6800FF324FF0FF33504613F0C2F9238A9E42D7
:102E780043D0A168626808EB01039A422FD3029BF2
:102E88002046ADF82030FF23009A8DF826302B46D7
:102E9800ADF82210ADF824501BF012FF2946074662
:102EA800E06A1BF07CFEA3680344A36057B908A836
:102EB8001BF06CFE204608A91BF03BFF002814BF3E
:102EC80007462F46504613F049FA3E4659E7C1DCFB
:102ED800064656E7019B1F441FFA87F8BDE72046C0
:102EE800FFF76CFD07460028ECD120461BF049FF90
:102EF80007460028E6D10136B8E76FF01B07E1E77F
:102F08006FF015063DE700BFF76002002DE9FF47A7
:102F18001E46837C04460F469046BDF8309043B960
:102F28002C4845211CF0EFF96FF00C0004B0BDE807
:102F3800F0870821C06A1BF032FEE368A3EB400368
:102F48009E4243D80025D4F804A0CDF804A0A94592
:102F58005146DDF804A009D2636853451ED1BDF877
:102F68000830BB421AD06FF00100DFE7204602AA02
:102F780001A91BF05BFE0028D8D1BDF80830BB4280
:102F880006D1204602A91BF014FE08B10135ADB2E6
:102F98006268019B9A42DAD15146E0E7BDF80C30ED
:102FA800002BE0D0A945DED8BDF80A00090CB342D1
:102FB8004FEA014128BF33460144424620461BF0F0
:102FC80086FD0028B2D1BDF80C00AFE76FF0150000
:102FD800ACE700BFF760020010B530B90B484521D7
:102FE8001CF091F96FF0150010BD836833B90848DB
:102FF80045211CF088F96FF00400F5E71B6813B150
:10300800BDE8104018471846EEE700BF7B62020093
:103018009162020010B530B90B4845211CF073F9D4
:103028006FF0150010BD836833B9084845211CF0BE
:103038006AF96FF00400F5E75B6813B1BDE810406A
:1030480018471846EEE700BF7B6202009162020053
:1030580070B508B101B132B90B4845211CF053F9DC
:103068006FF0150070BD84680CB1E56835B9074884
:1030780045211CF048F96FF00400F3E741F8040B10
:10308800E368BDE870401847B4620200916202002C
:1030980010B5044630B9104845211CF034F96FF0DA
:1030A800150010BD006830B90C4845211CF02BF9FB
:1030B8006FF00100F5E783680BB11B6933B9084865
:1030C80045211CF020F96FF00400EAE76168984791
:1030D8000028E6D12060E4E7E5620200FB62020016
:1030E8009162020070B51346044630B91048452174
:1030F8001CF009F96FF0150070BD006830B90D4873
:1031080045211CF000F96FF00100F5E782680AB16B
:10311800956835B9084845211CF0F5F86FF00400AA
:10312800EAE70A46AC466168BDE87040604700BF00
:10313800E5620200FB62020091620200034A136822
:103148000BB9526813600020704700BFEC030020E1
:1031580030B50C460E4985B00291D0F8D411054619
:10316800CDE9003100F1F0014FF0FF33204611F0B6
:103178002BFF50B9012384F86C30D5F8D03123B136
:10318800204605B0BDE83040184705B030BD00BF47
:103198002BF0010038B50C46114605461BF043FFDD
:1031A800034638B9284604491BF03DFF0346002072
:1031B800236038BD0120FBE7FA8A02002DE9F04FB1
:1031C800012381460569466889B005F55D77D7E82A
:1031D800EF2F002A03D1C7E8E13F0029F7D10CBF40
:1031E8001A46002240F0B180B368B16A05F5F87854
:1031F8001C1F10461BF09EFF84426FD8013A00F056
:103208009E80B2FA82F24FF00044D44072682046A1
:10321800073222F00302C5F83C22B16A1BF08AFF8C
:10322800C5F84002B36A40466343033323F00303FF
:1032380002EB4302230103EB4403093323F00303A6
:1032480003EBC403C5F834221A440832C5F8302207
:103258007368C5F83842C5F82C323D4BC5E9AD63F3
:10326800316800F0E5F90446002835D1D9F810B0E6
:10327800D9F804A0D9F800300BF53479CDE9060067
:1032880005934846DAE90734012B08BF103C13F0D0
:1032980055FEDAF824002F4905AB01EB80214FF4E5
:1032A800806248460093234613F05EFE2A490BF5D8
:1032B800307013F0D9FCDAE9050183685C684CB119
:1032C8005B46264AA047044630B9DAE90501836817
:1032D8001B692BB96FF05704002129E0013288E7F8
:1032E8000122984704460028F6D11D4B2846C5F808
:1032F800D0311C4BC5F8D4311B4B0393D5F8403261
:103308000293D5F83C32CDE9008305F51173B26A12
:10331800D5F8701300F054F904460028DCD105F103
:10332800F00011F0F7FE0028C5F878030ADB022147
:1033380038461BF0ACFE204609B0BDE8F08F6FF0B0
:103348000B04C9E76FF01504C6E76FF07704F2E7DE
:1033580081F00100A847002067F001005BF0010040
:103368007533000013F20100C7F0010013B50446DD
:1033780040B100230122CDE90032074BD0E9091200
:1033880011F0F6FD236F1B6823B1606F02B0BDE832
:103398001040184702B010BDFA8A020013B504465F
:1033A8000846216901F55D71D1E8AF1F022910D1E6
:1033B80093B1A0B10121CDE900311346D0E909123A
:1033C80011F0D6FD074B984208BF6FF00B0002B012
:1033D80010BD6FF00F00FAE76FF04C00F7E76FF0E1
:1033E8000100F4E72EF8FFFF2DE9F347894615465B
:1033F800066906F55D73D3E8AF3F022B64D1136805
:1034080023B96FF0150002B0BDE8F0871B78002BD8
:10341800F7D0D6F870A3BAF1000F36D106F5EC77DD
:103428004FF0FF324FF0FF33384612F0E1FE3046DE
:103438002A6801A9FFF7AEFE019C80461CB93846F0
:103448001BF023FEDDE705F108032367AB6984F869
:103458006CA06367646460B138461BF016FE2146B1
:103468003046A36E2A68FFF773FE0020C9F80040B3
:10347800C9E71F22296804F1480020F0B4FE384645
:1034880084F867801BF001FEEFE7304610491BF017
:10349800CAFD04460028B4D0002705F108030367D5
:1034A800AB6980F86C70436740641F222968483014
:1034B80020F099FE22460121304684F8677000F01A
:1034C80061F80028D1D09CE76FF00F009BE700BFA0
:1034D800FA8A020010B50C46006900F55D73D3E85E
:1034E800AF3F022B0FD189B10A4900F5307013F0B4
:1034F800B5FC20461FF0B9FB78220021204620F0B9
:103508000BFF002010BD6FF00F00FBE76FF001000C
:10351800F8E700BF0C1C00202DE9F04F05460E46C9
:1035280090460027D0F8C4A085B0AAF5BE742146FD
:103538003046FDF7D5FCE0B9114BA4F1480B0293D6
:10354800DAF810303246CDE9008329464FF0FF33D0
:103558005846AAF5E27911F037FD60B978230122BF
:1035680003FB079383F86C20DAF80C300BB158464C
:103578009847783417B105B0BDE8F08F0127D6E732
:1035880041F201001FB5144690B18AB1012912D148
:103598000A4B00F1F0010293D0F8D431483201937C
:1035A8004FF0FF332046009311F00EFD04B010BD1C
:1035B8006FF01500FAE70020F8E700BF41F20100BC
:1035C8002DE9F04387B00E46DDE90E811446DDE9AA
:1035D80010251F4630B329B3DFF850C000F1F009B9
:1035E800002D08BF65469EB9CDE9034400F5E27495
:1035F800204605961FF0F1FC03ABCDE900432A46AF
:103608003B464146484611F033FF07B0BDE8F0831A
:10361800002241460E9248462A4607B0BDE8F043CC
:1036280012F07CB86FF01500EFE700BF21350000FD
:10363800F0B504462B4A87B004AB0E4692E8030067
:1036480083E80300002C49D0184611F097FB054683
:10365800B0B94FF0FF33E16C04F15407A163CDE931
:10366800010000933846236D04F138021EF0AFFFC5
:10367800A06C1BF010FEC4F8BC0020B96FF00B055D
:10368800284607B0F0BDA06C1BF005FEC4F8C000CA
:103698000028F3D0236CD4F8BC10C4F8903004236D
:1036A800C4F89430C4F8AC300223E3620E4BB4F88B
:1036B8004820C4F88C10616C236204F18C03C4F8B0
:1036C800A070A4F89820C4F8B870C4F8A810A4F89A
:1036D800B020C4F8A400A6612363D1E76FF01505F4
:1036E800CEE700BF544B0200844C0200014B03603C
:1036F80000207047B04C020070B5104B0D461C6896
:10370800B4B10F4B196800238B4202DB6FF0010044
:1037180070BD224612F8106B864202D0144601335F
:10372800F2E7E0681FF097FC28B100202C60EFE773
:103738006FF00C00ECE76FF01200E9E7C00400201E
:10374800CC4D020010B5436888B0029383680C46DC
:10375800CDE9033200230A68C068CDE9062305498C
:1037680001AA05931EF0B5F8079808B9059B2360D0
:1037780008B010BD2BF301001FB507240294044CB8
:103788000194BDF8184000941DF063FB04B010BD0F
:1037980073080020044A054B0548012908BF1A464A
:1037A80049211BF0B0BD00BF50630200486302000E
:1037B8005963020010B5084C86B024788DF817407C
:1037C800012402940DF117040194BDF820400094DF
:1037D8001DF03FFB06B010BD7A080020014B187899
:1037E800704700BF7A08002000B5642889B08DF8BA
:1037F800070019D80E4B18221870002102A820F0D3
:103808008BFD0C4B002003930DF107030493012358
:1038180002A9ADF814300AF07BF910F1800F08BF47
:10382800002009B05DF804FB6FF01500F9E700BF50
:103838007A080020504D02002DE9F0410C4B054656
:103848001C680E4617467CB100F078F9636820467C
:10385800D3F8108032463B462946C047044600F05C
:1038680077F92046BDE8F0816FF00104F9E700BF61
:10387800341C002000230360044B5A6812B9C3E9C2
:103888000000704710605860704700BF381C002067
:10389800014B1860704700BF341C0020002330B56E
:1038A80085B0CDE902330546019000F047F9094B90
:1038B8001C6844B9284600F0D1F8044600F048F9DD
:1038C800204605B030BD636820461B6801A99847AB
:1038D8002468EEE7381C00201FB5CDE901010392EA
:1038E80000F02CF9074B1C6824B900F031F9204688
:1038F80004B010BD636820461B6801A99847246876
:10390800F2E700BF381C00200022024BC3E9002266
:10391800704700BF381C00200022024BC3E9002278
:10392800FFF7F2BF401C00202DE9F74307460C467D
:1039380009B100230B600026234DDFF890904D4518
:1039480020D9234923489D221AF067FF9D2120484A
:103958001AF05AFFD5F800803846414601AA1BF0F4
:103968003EFD50B116B954B92E4606E00022404635
:1039780031681BF034FD0028F5D11835DFE7019BCD
:103988002360F1E7E6D3144B1D68C5B155F8188CD0
:103998003846414601AA183D1BF021FD50B116B921
:1039A80054B92E4606E00022404631681BF017FD48
:1039B8000028F5D1AD69E8E7019B2360F1E73046BF
:1039C80003B0BDE8F08300BFA44A0200344B0200F4
:1039D80077630200895A0200401C00202DE9F34158
:1039E800DDF8208004460D4616461F460190B8F1C2
:1039F800000F07D0D8F80010C1B9D8F804E0BEF11C
:103A0800000F1CD1204601A9FFF78EFF98B13B4655
:103A1800D0F80C80324629460198C047034650B179
:103A2800224645210C481BF06EFC04E001AA1BF05D
:103A3800D6FC0028E1D1002002B0BDE8F081D8F81A
:103A480008303246089329463B46F446019802B0AE
:103A5800BDE8F041604700BFA96302002DE9F047C7
:103A680080464FF000470026DFF8BC90DFF8BCA086
:103A78003D462F4C4C452CD92E492F484FF489727E
:103A88001AF0CBFE4FF489712A481AF0BDFE2F4672
:103A9800EEE7B8F1000F03D122694AB91834E9E713
:103AA8000022414620681BF09AFC0028F4D1F5E773
:103AB8006368BB4205DDAF4209D09D42A8BF1D46E1
:103AC800ECE7EBD19047002E08BF0646E6E71D4617
:103AD800E4E7DED3DAF8004004B3183CB8F1000F8D
:103AE80003D122694AB9A469F6E700224146206851
:103AF8001BF075FC0028F4D1F5E76368BB4205DDCF
:103B0800BD4209D09D42A8BF1D46ECE7EBD19047C6
:103B1800002E08BF0646E6E71D46E4E7AF42B6D1E9
:103B28003046BDE8F08700BF344B0200401C00203F
:103B3800A44A020077630200895A02004FF0FF325C
:103B48004FF0FF33014812F053BB00BFBC090020FF
:103B5800014812F003BC00BFBC09002038B5094D6C
:103B6800FFF7ECFF2B783BB9FFF7D6FE00F06AF8B9
:103B7800044610B901232B700024FFF7E9FF204603
:103B880038BD00BF023C00202DE9F04706468946B3
:103B9800048FDFF8ACA0013498B0A4B200F1080794
:103BA800651EADB2B5F5004F47D04A23294605AA90
:103BB80038461BF0B7F904F57F543F34A4B2804669
:103BC8002146012338460DF10B021BF0ABF9B8F181
:103BD800000F014610DC002810DC338FAB4209D1FE
:103BE80032466B1E22F8383F4FF400410223384614
:103BF800FFF7B8F82C46D3E7002808DC29463846F2
:103C08001BF08CF9214638461BF088F9E5E708F1E6
:103C180060030DEB03080023524608F84C3C05A846
:103C2800CDF8009003AB0397ADF81040FFF7D6FE30
:103C38000028DFD018B0BDE8F0870020FAE700BF01
:103C480057F401007FB50125694628460195FFF71D
:103C580053FD044660BB284602AA01A91BF083FB5A
:103C6800044610B110F10C0F22D10399B1F5803F31
:103C780023D200231846009A9468084484421AD331
:103C88000133082BF9D10E4D69612B8353682846FF
:103C9800AB60D368EB631BF072FC044640B9094E75
:103CA80028466E60FFF7E6FD28466E60FFF7F0FDD8
:103CB800204604B070BD9BB2E5E76FF02004F7E73B
:103CC800481C00205C04002008B504481AF08FFD49
:103CD800BDE8084002481AF08ABD00BFD963020057
:103CE8000E640200F8B5026803460AB14268FAB9E0
:103CF800114912485D221AF090FD5D210E481AF014
:103D080083FD5A6800F01F04450906FA04F402EB23
:103D18008502D2E8EF5F45EA0407C2E8EC7FBCF110
:103D2800000FF6D12C4202D001308842E9D1F8BD0B
:103D380000200126F9E700BF3C640200895A02000E
:103D4800F8B50C780646012C0D4619D0022C1ED069
:103D580024BB164F28213846FFF7C4FF272806D969
:103D6800452113481BF0CFFA6FF00B00F8BD3B68F4
:103D780003EB800232602A6843F820202046F5E7EA
:103D880000210C48FFF7AEFF45210B48EAE7002168
:103D98000A48FFF7A7FF45210948E3E709484521F5
:103DA8001BF0B1FA6FF01500E0E700BF80040020B7
:103DB80069640200901C00208B640200881C0020AB
:103DC800AD640200D064020008B50C4B984203D3DE
:103DD80003F1A002904208D309490A48A5221AF023
:103DE8001CFDA52106481AF00FFDC01A064BC10894
:103DF8005868BDE808401BF0F7BB00BF9C1C0020BA
:103E08003C640200895A020078040020F7B50022B9
:103E18000446019210B1026802B141B9452118481F
:103E28001BF071FA6FF01505284603B0F0BD426823
:103E3800C3689A4206D3452112481BF064FA6FF012
:103E48001B05F1E701A8FFF77BFF05460028EBD12A
:103E5800D4E900635A1C6260142202FB03F433198C
:103E680001461846019F20F057FA0121064A3251AF
:103E7800064AC7604260428A61F30E024282D3E773
:103E8800E7640200FE640200D25702007D0D0200C2
:103E980000232DE9F74F8A4615460446019310B1D1
:103EA800036803B14AB9452132481BF02CFA6FF078
:103EB8001506304603B0BDE8F08F4368C268023388
:103EC800934206D945212C481BF01DFA6FF01B06BA
:103ED800EFE72A4E14213046FFF704FF1328074660
:103EE80006D9452126481BF00EFA6FF00B06E0E7CD
:103EF800D6F800B029680BEBC00901A8FFF720FF2E
:103F0800064618B14846FFF75FFFD2E7DDF80480A0
:103F180001464BF8378089F806A04FF0140AA9F833
:103F28000400D4E900B77B1C0AFB07F763600BEBBE
:103F380007035246184620F0EFF90121114A4BF8C1
:103F48000720114AC0F80C904260428A61F30E02C1
:103F58004282D4E900E35A1862602C460AFB03FC4B
:103F68000FCC0EEB0C070FC723683B604EF80C8094
:103F78009FE700BFE7640200FE64020078040020A7
:103F88001E650200CE570200CF0E02000023F7B5CF
:103F98000C460546019310B1036803B141B94521A8
:103FA8001E481BF0B0F96FF01506304603B0F0BD9F
:103FB8001B4920681BF0FEFC10B945211948F0E7A1
:103FC800194920681BF0F6FC0028F6D0174920682C
:103FD8001BF0F0FC0028F0D06A68EB689A4206D320
:103FE800452113481BF08FF96FF01B06DDE72168A8
:103FF80001A8FFF7A5FE06460028D6D1D5E900C7D7
:104008007B1C6B6014235F430FCC0CEB07050FC5BB
:1040180023682B60019B4CF80730C6E7E764020071
:10402800D257020049650200CE570200CA57020063
:10403800FE640200F8B50E46154618B107680FB1C0
:1040480001B132B9124845211BF05DF96FF0150036
:10405800F8BD4468C268944206D30E4845211BF057
:1040680052F96FF01B00F3E7621C426014225443BC
:104078003B191846002120F04FF9074A074B4260C8
:10408800074A4582C0E9022600203B51E0E700BF0D
:10409800E7640200FE6402004F0D0200CA570200E6
:1040A80085CC0000F8B504460E4641B91B491422D8
:1040B8001B481AF0B2FB142118481AF0A5FB30B9B6
:1040C8001649152216481AF0A8FB1521F4E74FF0F7
:1040D800FF334FF0FF3200691BF096FA63680BB9A3
:1040E800256825B1E3687BB9A3686BB9012504EBA2
:1040F800C507002200233946606911F06FFD18B921
:104108007E6054F83500F8BD572106481BF0FBF8CF
:1041180020691BF07BFA0020F5E700BF90650200DC
:10412800895A0200BC650200F8B504460D4641B93B
:104138001D493B221D481AF070FB3B211A481AF012
:1041480063FB30B918493C2218481AF066FB3C2139
:10415800F4E74FF0FF334FF0FF3200691BF054FAD9
:1041680063689D420CD0E3689D421AD057211048DD
:104178001BF0C9F820691BF049FA6FF01500F8BD6B
:104188000026002554F83610606904EBC60711F0C4
:1041980097FD44F836507D6020691BF037FA2846B1
:1041A800EDE70126EDE700BF90650200895A02009D
:1041B800DD65020038B504460D4641B916496F223F
:1041C80016481AF02AFB6F2113481AF01DFB30B964
:1041D8001149702211481AF020FB7021F4E74FF0C2
:1041E800FF334FF0FF3200691BF00EFA63689D42FF
:1041F8000BD0E3689D420CD0572109481BF083F887
:1042080020691BF003FA002038BD002354F833005E
:10421800FAE70123FAE700BF90650200895A020015
:104228001366020038B50D46044640B91049872286
:1042380010481AF0F2FA87210D481AF0E5FA012918
:1042480006D90B4988220B481AF0E7FA8821F3E7C8
:1042580000694FF0FF324FF0FF331BF0D5F904EB44
:10426800C50045681DB920691BF0D0F9284638BD3E
:1042780090650200895A020008B540B9114999228F
:1042880011481AF0CAFA99210E481AF0BDFA61B11C
:104298000368994210D0836899420DD00949A62233
:1042A80009481AF0BAFAA621EEE706499A22064802
:1042B8001AF0B3FA9A21E7E70069BDE808401BF055
:1042C800A5B900BF90650200895A02002DE9F04F98
:1042D800CF6885B0A7F5017901460646D9F82802C6
:1042E80090461C46BDF838B0FFF764FF054648B94C
:1042F800572116481BF007F86FF01004204605B048
:10430800BDE8F08F0BEB0403012B1BDC00F10C0A5A
:10431800224641460AEB0B001FF0D7FF7B685BB1D2
:1043280001220023CDF808A08DF80C208DF8043068
:1043380031467B6801A898472946D9F82802FFF733
:104348009BFFDBE76FF00604F6E700BF4366020059
:104358002DE9F04FD1F80C800546A8F501790E46F5
:1043680089B00146D9F8280217469B46FFF722FF75
:10437800044648B9572117481AF0C5FF6FF01006D0
:10438800304609B0BDE8F08F4FF0010A00F10C0388
:104398000193BDF84830314600933A465B462846BB
:1043A800CDF808A01CF055FDD8F80430064653B1E6
:1043B800002206978DF81CA02946D8F804308DF8FD
:1043C800142005A898472146D9F82802FFF754FF7A
:1043D800D6E700BF436602002DE9F047D1F80C800C
:1043E8000646A8F505790146D9F8280217461C465D
:1043F800BDF820A0FFF7DEFE054640B95721154855
:104408001AF081FF6FF010042046BDE8F087BAF17A
:10441800000F18D1012C19D8387848B1012807D0D5
:104428006FF005042946D9F82802FFF725FFEBE7C6
:10443800D8F800300BB1314698472246394628460D
:104448001FF043FFEEE76FF00604EBE76FF00C0494
:10445800E8E700BF436602002DE9FF476FF00F044D
:10446800D1F80C800F4698F825100646C1EBC1011B
:10447800A4EBC10444440146D4F8280291469A4664
:10448800FFF798FE054648B9572110481AF03BFF38
:104498006FF01006304604B0BDE8F08798F8273072
:1044A8003946029398F8282003693046134401934B
:1044B800BDF830304A46009353461CF0CAFC2946E2
:1044C8000646D4F82802FFF7D7FEE3E74366020062
:1044D8002DE9F04FCC681D466378214E03EB43036A
:1044E800A6EB83062644014685B08046D6F8280206
:1044F8009246BDF838B0FFF75DFE074648B9572128
:1045080018481AF000FF6FF01005284605B0BDE8FE
:10451800F08FA2780BEB050393421EDC4269E37827
:10452800514602EB030909EB0B002A461FF0CDFEAA
:10453800A36863B12378CDF808908DF80430A37888
:1045480001228DF80C304146A36801A898473946E6
:10455800D6F82802FFF790FED7E76FF00605F6E7D2
:10456800D4FEFFFF436602002DE9F047CC68914670
:104578006278204D02EB4202A5EB820525440746EE
:10458800884688B00146D5F828029A46FFF712FEF9
:10459800064648B9572118481AF0B5FE6FF01008BA
:1045A800404608B0BDE8F087A37841460293E27818
:1045B8004369384613440193BDF840304A46009396
:1045C80053461CF046FCA368804663B12378CDF8B7
:1045D80018908DF81430A37800228DF81C303946D5
:1045E800A36805A898473146D5F82802FFF744FE86
:1045F800D6E700BFD4FEFFFF436602002DE9F04F67
:1046080085B01C469DF83C3080469B079246BDF815
:1046180038B03FD4CD68214E6B78014603EB430395
:10462800A6EB83062E44D6F82802FFF7C3FD0746FB
:1046380048B957211A481AF066FE6FF01004204650
:1046480005B0BDE8F08FAA780BEB040393421EDC9B
:104658008269EB78514602EB030909EB0B0022460D
:104668001FF033FEAB6863B12B78CDF808908DF856
:104678000430AB7801228DF80C304146AB6801A8B4
:1046880098473946D6F82802FFF7F6FDD7E76FF0C6
:104698000604F6E76FF00504D1E700BF94FEFFFFBC
:1046A800436602002DE9F047CC6891466278204DB8
:1046B80002EB4202A5EB820525440746884688B0EE
:1046C8000146D5F828029A46FFF774FD064648B910
:1046D800572118481AF017FE6FF01008404608B026
:1046E800BDE8F087A37841460293E27883693846AB
:1046F80013440193BDF840304A46009353461CF0DA
:10470800A8FBA368804663B12378CDF818908DF88C
:104718001430A37800228DF81C303946A36805A808
:1047280098473146D5F82802FFF7A6FDD6E700BF1F
:1047380094FEFFFF436602002DE9F043CE6805466C
:10474800A6F5D6760F4685B00146D6F828029046DB
:104758009946FFF72FFD044648B957210E481AF02D
:10476800D2FD6FF01005284605B0BDE8F08303239D
:104778000293431C0193BDF83030394600934246FA
:104788004B4628461CF065FB21460546D6F828020C
:10479800FFF772FDE7E700BF436602002DE9F0432B
:1047A800CE680546A6F5EC760F4685B00146D6F8E4
:1047B800280290469946FFF7FDFC044648B9572160
:1047C8000E481AF0A0FD6FF01005284605B0BDE8A8
:1047D800F08308230293031D0193BDF83030394656
:1047E800009342464B4628461CF033FB21460546BB
:1047F800D6F82802FFF740FDE7E700BF436602004E
:104808002DE9F043CE680546A6F505760F4685B036
:104818000146D6F8280290469946FFF7CBFC044695
:1048280048B957210D481AF06EFD6FF0100528465B
:1048380005B0BDE8F0830123CDE90103BDF83030B0
:104848003946009342464B4628461CF002FB214657
:104858000546D6F82802FFF70FFDE8E74366020091
:10486800F8B5054641B92C4938222C4819F0D5FF2E
:104878003821294819F0C8FF30B927493922274873
:1048880019F0CBFF3921F4E7D0F82802FFF70AFC2A
:10489800044630B9224857211AF035FD6FF00B0055
:1048A800F8BDD5F8283200215B6938269A691FF0CF
:1048B80033FD2346012203F81C2BC4E9043395F881
:1048C80028110022052928BF052105F1370091424A
:1048D800636912D8A36195F868210023052A28BFC7
:1048E80005220C2605F597709A420DD8D5F82802AE
:1048F8002146FFF7C1FC0020D2E706FB02F7C75D9F
:1049080001323B446361E2E706FB03F1475CA169BE
:1049180001333944A161E7E762660200895A02005F
:104928009366020010B541B90E4966220E4819F087
:1049380074FF66210B4819F067FF30B909496722EF
:10494800094819F06AFF6721F4E7D0F82802FFF751
:10495800EBFB044618B1572104481AF0D4FC204652
:1049680010BD00BF62660200895A0200D3660200C9
:104978002DE9F04FB1F8A4310446B3F5007F0D4698
:1049880089B000F25283D1F8A831C0F81432D1F8B6
:10499800AC3103A9C0F81C3200238DF80C3041F665
:1049A8001203ADF80E30FFF731FA50B1AB494FF4AE
:1049B8006472AB4819F031FF4FF46471A74819F0DD
:1049C80023FF42F64E23ADF80A3002AB0393A54B02
:1049D8008DF808000493A44B0621059304F505738C
:1049E80006934FF44023204603AA0793FFF750FA93
:1049F800064640B1994940F29332994819F00DFFA3
:104A080040F29331DAE795F81C31052B08D9934920
:104A18004FF43F72924819F000FF4FF43F71CDE711
:104A28004FF48E72291D04F110001FF04EFC94F80B
:104A38002831B046052B28BF052304F1340700931D
:104A4800009BB3420DD895F85C31052B40F281806C
:104A5800824940F22B32824819F0DFFE40F22B31B6
:104A6800ACE700227B79079213F0150B08BF4FF0D3
:104A7800040B05928DF8082042F64D224FEA4B03AD
:104A8800019302AB0393794B1221ADF80A2020461B
:104A9800A7F1240A03AA0493CDF818A0ADF81EB014
:104AA800FFF7F6F9014640B16C4940F215326C48FF
:104AB80019F0B3FE40F2153180E7382000FB0640BC
:104AC80062681030013ABA7087F8048024227E7038
:104AD8001FF022FC664B514647F80C3C4FEA4B034B
:104AE8004BEA03022046D2B2FFF7A4FA40B15B4971
:104AF80040F21F325A4819F090FE40F21F315DE72C
:104B080042F60813079005908DF80800ADF80A30B2
:104B1800C0F30F4002AB03936BF30E00554BADF897
:104B28001E0003A9204606970493FFF72FFA38378B
:104B380040B14A4940F22132494819F06EFE40F22C
:104B480021313BE717F8353C013643445FFA83F8D7
:104B580076E704F59676324605F5907305F5B07854
:104B680053F8041B434542F8041BF9D194F8683103
:104B78004FF00009052B28BF0523CB469A46CA45A6
:104B88000CD895F89C31052B7CD9344940F2593220
:104B9800334819F042FE40F259310FE700220792DC
:104BA8008DF8082042F64D22777902AB17F0150FE1
:104BB8000393314B08BF47F0040717F02A0F0493FB
:104BC8002E4B08BF47F00807ADF80A200E212046F3
:104BD80003AACDE90536ADF81E70FFF759F940B1C3
:104BE8001E4940F242321E4819F017FE40F2423187
:104BF800E4E662680790013A327142F608120590BD
:104C08008DF8080002AB07F01507C0F30F400393B7
:104C180067F30E001A4B86F803B086F80190ADF8DA
:104C28001E0003A920460696ADF80A200493FFF754
:104C3800ADF90C3640B1094940F24D32084819F037
:104C4800ECFD40F24D31B9E616F80A2C09F10109DC
:104C58000BEB02035FFA83FB91E700BF6266020079
:104C6800895A020009480000E1430000614400003D
:104C780019F60100CDF6010071450000D944000085
:104C8800F5F6010004F5B676334605F5D07958F8FF
:104C9800042BC84543F8042BF9D194F8A8314FF0F8
:104CA8000008052B28BF0523C3469A46C2452AD8C3
:104CB800D5F8A0210427C4F80C22D9F8042004F55B
:104CC8000373C4F810220022079205928DF8082079
:104CD80042F64B22ADF80A2002AA0392AE4A0221FC
:104CE8000492204603AA0693ADF81E70FFF7D0F889
:104CF800002867D0A9494FF46A72A94819F08DFDB8
:104D08004FF46A715AE6002207928DF8082042F69D
:104D18004D22777902AB17F0150F0393A14B08BF0B
:104D280047F0040717F02A0F04939F4B08BF47F07A
:104D38000807ADF80A200A21204603AACDE905365E
:104D4800ADF81E70FFF7A4F840B1944940F26F32F5
:104D5800934819F062FD40F26F312FE662680790C0
:104D6800013A327142F6081205908DF8080002AB3C
:104D780007F01507C0F30F40039367F30E008B4B42
:104D880086F803B086F80180ADF81E0003A9204616
:104D98000696ADF80A200493FFF7F8F80C3640B1F0
:104DA8007E4940F279327E4819F037FD40F2793178
:104DB80004E616F80A2C08F101080BEB02035FFA67
:104DC80083FB73E795F8BC31002B45D0012384F8A9
:104DD800243242F63323079005908DF80800ADF889
:104DE8000A30C0F30F4002AB039367F30E00704B19
:104DF8001221ADF81E0004F5D676204603AA0493C6
:104E08000696FFF745F8014640B164494FF46D72C4
:104E1800634819F002FD4FF46D71CFE563682422F1
:104E2800013B84F8D031D5F8B0313046C4F8D431DC
:104E38001FF072FA5F4B0C2231462046C4F8C43189
:104E4800FFF7F8F840B155494FF47072544819F01B
:104E5800E4FC4FF47071B1E595F8BD31002B6CD0CE
:104E6800012384F825320023079305938DF8083031
:104E780042F62223ADF80A3002AB03934E4B1221BF
:104E880004930423204604F5EC7603AA0696ADF8AD
:104E98001E30FEF7FDFF014640B140494FF47372E2
:104EA8003F4819F0BAFC4FF4737187E56368242210
:104EB800013B84F8FC31D5F8B4313046C4F80032EF
:104EC8001FF02AFA3D4B0C2231462046C4F8F03137
:104ED800FFF7B0F840B131494FF47672304819F015
:104EE8009CFC4FF4767169E542F63223ADF80A303E
:104EF80002AB0393324B8DF808000493314B0E211B
:104F0800059304F5017306934FF44023204603AA42
:104F18000793FEF7BDFF40B1204940F2DD3220483B
:104F280019F07BFC40F2DD3148E56368013B84F809
:104F38000432D5F8B831C4F808322B88042684F82E
:104F480020321B0A84F82132AB78022184F82232FD
:104F5800EB78204684F823320023079305938DF8D5
:104F6800083042F64A23ADF80A3002AB0393164BD9
:104F780003AA049304F508730693ADF81E60FEF7C0
:104F880087FF054610B3054940F2EF32044819F08F
:104F980044FC40F2EF3111E5B1F60100626602000F
:104FA800895A0200AD460000054600001BF70100C3
:104FB8004147000035F60100A54700004BF6010007
:104FC80059430000D542000099F60100102201461D
:104FD8000DEB02001FF0A0F942F64C230822ADF8B1
:104FE8000A3002AB0393154B3146059304F506735B
:104FF8000693BDF81E30204662F30E0303AA8DF80F
:105008000850ADF81E30FEF743FF40B10C4940F29E
:10501800F6320C4819F001FC40F2F631CEE4204695
:1050280009B0BDE8F04F08F015B9572106481AF045
:105038006AF96FF0790009B0BDE8F08F61F60100F8
:1050480062660200895A0200196702002DE9F04FD2
:1050580089B01F469DF8483016464FF0380A00932D
:1050680010230AFB06091AFB023200EB020B99F81F
:1050780036200D46016802EB820299F8373001EBC1
:105088008208009A04469342019357D1002D43D1D8
:10509800AA465146D4F82802FFF7C4F88146D0B191
:1050A80001224146406808F0A3FA70B1382306FB94
:1050B8000333D9F80020E35C1569DBF82C001D44A4
:1050C8003A462946009B1AF038FBD9F80010D4F864
:1050D8002802FFF7D1F8BAF1000F1AD0002D5CD0E2
:1050E8001822002102A81FF017F9382303FB0643F2
:1050F80093F837300020ADF81430139B02A9CDE99E
:105108000387069308F004FD0546284609B0BDE864
:10511800F08F4FF0010ABCE701224146284608F00B
:1051280067FA00283CD02946D4F82802FFF742F84D
:10513800804630B957211C481AF0E5F86FF015057C
:10514800E3E706FB0AA30069E15C3A46019B0144D8
:10515800DBF82C001AF0F1FA1022002102A81FF047
:10516800DBF899F83630226803EB830302EB8302FD
:1051780099F8373002A9ADF81430139B28460693E6
:10518800149BCDE90327079308F0C2FC4146054666
:10519800D4F82802FFF770F8B7E76FF03C05B4E7DA
:1051A8006FF00C05B1E700BF436602002DE9F04F30
:1051B8001D4690F8FC31076887B003EB8303064669
:1051C80091460C46DDF840A007EB830700293ED145
:1051D8008B465946D6F82802FFF724F88046C8B10E
:1051E80001223946406808F003FA68B1D8F800404F
:1051F8002A460434494620461FF067F80021C5F1C5
:10520800080260191FF088F8D8F80010D6F82802AC
:10521800FFF732F8BBF1000F16D0002C54D018223B
:10522800002168461FF078F8082369460020CDE978
:105238000174ADF80C30CDF810A008F069FC0446F4
:10524800204607B0BDE8F08F4FF0010BC1E70122FF
:105258003946204608F0CCF9C8B32146D6F82802CA
:10526800FEF7A8FF082D804604D830B95721194801
:105278001AF049F86FF01504E2E700F1040B2A462A
:10528800494658461FF021F8082D06D00021C5F1DF
:1052980008020BEB05001FF03FF8182200216846B2
:1052A8001FF03AF8082369462046CDE9017BADF89E
:1052B8000C30CDF810A008F02BFC41460446D6F877
:1052C8002802FEF7D9FFBBE76FF03C04B8E76FF0A0
:1052D8000C04B5E743660200014815F06FBC00BF37
:1052E800A04D020038B5044618B90F4B0F485B684B
:1052F80098476168B1F5683F10D0B1F5680F0DD0D7
:105308000B4DA9420AD011F46861206807D0014604
:10531800084810F0D5FC00232360656038BD1422CE
:105328001EF0FAFFF9E700BF0808002057670200DF
:105338002C5F5CA94422002008B560B34368B3F52C
:10534800683F0ED0B3F5680F18D0144A934220D0A6
:1053580000684FF0FF324FF0FF3310F049FF58B1AB
:1053680015E001220368D3E8EF1F002903D1C3E841
:10537800E02F0028F7D10AD1002008BD0368084AA9
:105388001B7803F5807352F82330002BF4D00548BE
:10539800F3E70548F1E76FF4E040EEE72C5F5CA91E
:1053A80000000350E98FFFFFEA8FFFFF08B520B325
:1053B8004368B3F5683F09D0B3F5680F13D0114AB5
:1053C80093421DD0006810F0C9FF14E00022036862
:1053D800D3E8EF1F012903D1C3E8E02F0028F7D154
:1053E80009D0094808BD00210368084A1B7803F55D
:1053F800807342F823100020F4E76FF4E040F1E7EF
:105408000348EFE72C5F5CA9E98FFFFF000003501A
:10541800EA8FFFFF10B5044618B91D4B1D485B689D
:1054280098476368B3F5683F2FD0B3F5680F2CD061
:10543800194A934219D1236803BB4FF0FF324FF04A
:10544800FF332146154810F0C9FB08B923681BB97A
:105458000F4B13485B6898471422002120681EF000
:105468005BFF4FF46863636008E0B3F5683F0DD8ED
:105478003A2B03D040F6BA629342DED120681DF081
:1054880037FE636843F03A03636010BD054AF3E7EB
:1054980008080020576702002C5F5CA944220020FE
:1054A8007D6702003A00003A08B5064940231422F5
:1054B80005481DF0FFFDBDE808400449044815F003
:1054C80041BC00BF441D002044220020A84D02001A
:1054D800BC4D020008B50348034A0021121A1AF00D
:1054E8004AF908BDF00B0020A83F0020074808B57E
:1054F800074A0849121A1AF040F9BDE80840064858
:10550800064A0749121A1AF038B900BF00000020ED
:10551800EC0B00208CA902000000002000000020F5
:105528008CA9020037B505460C46C9B18B681448EA
:105538000093D1E90023452119F0E5FE636945216F
:105548000093D4E903230F4819F0DDFE4521E269F1
:105558000D4819F0D8FE4521A2690C4819F0D3FE70
:10556800012D06D1EFF3058245210948103A19F0BB
:10557800CAFE2146284603B0BDE8304010F008B9FD
:10558800AA670200DE6702001268020026680200AD
:105598005968020030BFFFF7FDBF00BF2DE9F04199
:1055A80005460B4EDFF82C80324606EB0807CC1B6D
:1055B800204609491EF089FEA01942460021083CF0
:1055C8001EF0AAFE6C6707F10800BDE8F08100BF75
:1055D8000000000008000000344B0200054B5A6927
:1055E8009B689A421FBF044A536843F08053536034
:1055F800704700BFB028002000ED00E010B5244C33
:105608004521244819F07FFEA36A99013ED5224816
:10561800452119F078FE1E20A36ADA0104D51F4837
:10562800452119F070FE1F20194CA36ADB0204D52E
:105638001B48452119F067FE0220A36A1C0304D504
:105648001848452119F05FFE2120114CA36A59031F
:1056580004D51548452119F056FE2220A36A9A035D
:1056680004D51248452119F04EFE2320084CA36AA0
:10567800DB0304D50E48452119F045FE2420A36A12
:105688006FEA03436FEA1343A36210BD1D20C3E70B
:1056980000ED00E0716802008E680200A668020052
:1056A800C5680200F4680200176902004169020037
:1056B8006069020070B5284C06460D46274845210A
:1056C80019F021FEA36AD9043BD52548452119F0D4
:1056D8001AFE1720A36A1A0504D52248452119F095
:1056E80012FE18201C4CA36A9B0511D51E484521A3
:1056F80019F009FEA26BA36A180408D545211B48B6
:1057080019F001FE1EB1A36A23F40043A362192015
:10571800114CA36A590504D51548452119F0F3FD24
:105728001A20A36ADA050ED51248452119F0EBFDB7
:105738001B20094A936A43F47F43936200232B702A
:1057480070BD1620C6E7A36A9B04F2D50A48452116
:1057580019F0D9FD1C20ECE700ED00E0906902008B
:10576800AB690200C1690200D9690200F769020049
:10577800116A0200316A02004E6A020070B5324CAA
:1057880006460D463148452119F0BDFDA36AD906E4
:1057980048D52F48452119F0B6FD1120A36A1A07EC
:1057A80004D52C48452119F0AEFD1220264CA36AD9
:1057B8009B0711D54521284819F0A5FD626BA36AFE
:1057C800190608D54521254819F09DFD1EB1A36A83
:1057D80023F08003A36213201B4CA36ADA0704D5C5
:1057E8001F48452119F08FFD1420A36A9B0604D594
:1057F8001C48452119F087FD1520134B9A6AD606D7
:1058080002D49A6A94070FD59B6AD9060CD5164913
:10581800164840F22D1219F000F840F22D111248E6
:1058280018F0F2FF1020B9E7074B9A6A920642BFB8
:105838005A6A22F400525A629A6A42F0FF029A6245
:1058480000232B7070BD00BF00ED00E0826A0200EB
:105858009D6A0200C1690200D56A0200F26A02006C
:105868000D6B02004E6A0200316B0200895A020079
:10587800F0B56C4B0446586800258BB0C0F308039C
:1058880085F31188BFF36F8F02F07F46B6F17F4F23
:1058980007D102F00C06082E0ED14521624819F0F6
:1058A80032FD624940F21442614818F0B6FF40F2F6
:1058B80014415E4818F0A8FF16074CBF0C46012596
:1058C800002CEED00026DA1E8DF80760092A00F2B7
:1058D8009880DFE802F0058B8F76969696969693D9
:1058E8004521544819F00FFD8DF807604D4EF36AB5
:1058F8009A0705D54521504819F005FD002329E0F0
:10590800F36A002B02DA45214C48F5E7F36A5B009D
:1059180063D545214A4819F0F6FC7369A26943F436
:1059280080737361BFF34F8FBFF36F8F736932F862
:10593800022C23F480737361BFF34F8FBFF36F8F13
:105948004DF602739A4224D1452122683D4819F048
:10595800DAFC23689DF80720CAB902AE04F12007D3
:10596800324620686168083403C2BC421646F7D143
:10597800099A002D51D0C2F3080121B96FEA5222C9
:105988006FEA42220992184602A9FFF7CBFD0BB035
:10599800F0BDB36ADBB233B101200DF10701FFF7A7
:1059A800EDFE0346D6E7B36A13F47F4F05D0012016
:1059B8000DF10701FFF77EFEF3E7B36AB3F5803F09
:1059C80002D3FFF71BFEECE7184940F2ED22184816
:1059D80018F023FF40F2ED216BE714494FF43C72B5
:1059E800134818F01AFF4FF43C7162E700200DF1DC
:1059F8000701D4E700200DF10701DBE74521124834
:105A08007AE7124910F4F87F114A124808BF0A468B
:105A1800103B452119F077FC70E722F4FF7222F061
:105A28000102AFE700ED00E0916B0200316B02006C
:105A3800895A0200C16B0200DD6B0200036C020090
:105A4800166C02003A6C02005B6C0200636B020089
:105A5800786B0200846C0200064B5A6942F010020F
:105A68005A615A6942F480625A615A6922F00802FE
:105A78005A61704700ED00E0EFF30880EFF3098109
:105A880001B57246FFF7F4FE01BD00BF002080F3A8
:105A98001488BFF36F8F002080F30A8880F30B8887
:105AA8000F4880F308880CF0C5FC00200D490860F9
:105AB800BFF34F8F00F02CF8402080F311880A487C
:105AC8004FF40061401880F30988EFF31480022135
:105AD800084380F31488BFF36F8F00F0FDF80000CF
