:020000040100F9
:10000000104C0021352D0101F5B60101212D010112
:10001000212D0101212D0101212D010100000000F0
:10002000000000000000000000000000912E01010F
:10003000212D010100000000312E0101212D0101BF
:100040003930010139300101393001013930010104
:1000500039300101393001013930010139300101F4
:10006000B5BD0101393001013930010139300101DB
:10007000CBBD0101393001013930010139300101B5
:10008000393001019BBD01013930010139300101D5
:1000900039300101393001013930010139300101B4
:1000A00039300101393001013930010139300101A4
:1000B0003930010139300101064A074B02604FF423
:1000C0003672DB7882800822C3710023827103724A
:1000D000704700BFCF14010198060021064A074B64
:1000E00002604FF4B472DB7A82800822C371FF236E
:1000F00082710372704700BF15100101980600213C
:100100002DE9F341C41D0028064624F007040CBF66
:100110000020204600F0C8FC071E04DA6FF00B0038
:1001200002B0BDE8F081374DE988A88803316B7AC9
:1001300003302A7A89B280B20EF0E5FA0028EDDBAE
:100140003C44A978EB78002E04F10304194424F010
:10015000030400FB01F10CBF0020204600F02AFE42
:1001600020440EB90028D9DBEA7A0446B2B1EB7B11
:10017000697C13441944FF29D0D80330002EAA8982
:10018000C9B220F003040CBF0020204600F084FE1A
:100190000028C3DB04440EB9002CBFDB012000F0B3
:1001A00079FCB0B1A97BA1B195F82A3033B34023D3
:1001B0004FF481720734002E24F007040CBF002096
:1001C000204601F0F9FF0028A8DB04440EB9002CFA
:1001D000A4DBAB7AFBB1EB7AB3B10734002EA97A7A
:1001E00024F007040CBF0020204604F047FD00283F
:1001F00094DB04447EB9002C0DDA8FE725232822F6
:10020000D8E700BF98060021012000F043FC10B1A0
:10021000AB7B002BE1D1734B1B6893B1A97D81B1FE
:100220000334002EEA7D24F003040CBF0020204696
:1002300098470028FFF672AF044416B9002CFFF669
:100240006DAF694B1B688BB1297C79B10334002EEB
:1002500024F003040CBF0020204698470028FFF636
:100260005DAF044416B9002CFFF658AF5F4B1F6812
:10027000B7B1697CA1B10334002E2B7D24F00304B7
:1002800008BF0020009318BF2046EB7CAA7CB8472B
:100290000028FFF643AF044416B9002CFFF63EAF2A
:1002A000072000F0F7FB98B1A97D89B10334002E37
:1002B0002A7E24F003040CBF0020204600F0DAFE62
:1002C0000028FFF62BAF044416B9002CFFF626AF2A
:1002D000B6FA86F795F823007F09A0B103346B7F47
:1002E000A97E24F0070419443B4644F00404C9B233
:1002F000224600F0FFFE0028FFF610AF044416B9B6
:10030000002CFFF60BAF95F8241000294CD004F117
:100310000708002EEA8C28F007080CBF0020404692
:100320000EF005FA041EFFF6F9AE4444002E3ED14D
:10033000002CFFF6F3AEA97F002945D095F82230B6
:10034000002B41D02A8C0734002E02F1240224F025
:1003500007080CBF0020404692B20EF0E8F90028D2
:10036000FFF6DCAE404416B90028FFF6D7AE0330E6
:100370002B7FA97E20F0070019443B4640F004047F
:1003800095F82200C9B2224600F0A6FE0028FFF62A
:10039000C5AE044486B9002CFFF6C0AEEB6AF3B1DB
:1003A000C6B1EC620020BBE6002EC4D08846E98CC2
:1003B000404609F029FEBEE72A8C4046A97F083254
:1003C00092B209F027FEE9E7002EE7D0002211469D
:1003D0001046F6E728343FF5A1AE2046A0E6002EF1
:1003E000E0D1FAE7600000216400002168000021EC
:1003F0001FB572B6194B1C6BECB9BFF34F8F184980
:10040000184BCA6802F4E0621343CB60BFF34F8F0E
:1004100000BFFDE7B2FBF6F22B465D1C002AF9D1C6
:10042000DBB203F110056D4405F80C2C0A2233B938
:1004300001A8A047E1E7024600230A26EDE7013BB9
:10044000DBB203F110050DEB0506B0FBF2F502FB84
:100450001500303006F80C0C2846E8E79806002115
:1004600000ED00E00400FA0513B5124C684623893C
:10047000ADF80030E388ADF80430A388ADF8023061
:1004800002F068FC18B1FC219C20FFF7B1FF207D31
:1004900002F090FC08B1FF21F6E7E07C02F084FC5A
:1004A00010B14FF48071EFE794F8280007F062FE76
:1004B00002B010BD9806002138B50546002840D08E
:1004C0000CF064FF10B94FF0FF3038BD0CF024FD84
:1004D000B0F5FA7FF7D81C4C1C4825631B2500F0AB
:1004E00055FA00212A4604F10F0084F834102170D7
:1004F00084F82A10E1620DF069F901230321082034
:100500000222A370E370E372A3742376F7232172AF
:100510002384FB23A0721F20A1734921E3840A23B3
:10052000A580E5806272A081E174E27584F82830CC
:10053000EFF3108472B600F0EDFD04B962B600204E
:10054000C3E76FF01500C0E79806002169040001B9
:1005500038B51446002840F0C480634D95F8343017
:10056000032B00F0BB80B9B112B96FF0150038BD94
:100570000139172900F2B580DFE801F00C1D2036A3
:100580006069873C6C6F814248565B8D909FA2A545
:1005900096B3B3A81378AB700020FFF7B1FD002825
:1005A000B7BF012302236FF00B0085F83430A8BFDA
:1005B00085F83430DBE71378EB70EDE71379002B27
:1005C000D3D05379002BD0D01288FB2ACDD86388A2
:1005D0001B3B9BB2E02BC8D81A2AC6D92368A28835
:1005E0006B60424B9A80D7E71378EA7B9342BCD387
:1005F000EB72D1E71378EA7A9342B6D8EB73CBE784
:100600001378EA7A9342B0D86B74C5E71378002B5D
:10061000ABD05378013BDBB2F82BA6D81388927885
:100620006B82334B9A70B7E71078687507F09CFDC2
:10063000B2E71378002B98D02B76ADE7012000F0BD
:1006400029FA237808B1012B8FD9AB73A4E713885B
:10065000AB81A1E71378AB759EE7072000F01AFA8B
:1006600010B92378012B80D9072000F013FA18B1B4
:100670002378002B3FF479AF2378EB758CE7137860
:10068000082B3FF672AF2B7486E71388FF2B3FF6DB
:100690006CAFAB7280E713786B767DE713780E2B27
:1006A0003FF663AFAB7677E72368124AC5F81E3092
:1006B00063685360238913816EE71378EB766BE7E9
:1006C00013786B7768E713782B7765E713785A1EF2
:1006D000092A3FF64AAF85F828305DE74FF0FF3032
:1006E00045E76FF02C0042E7980600219C060021A8
:1006F000AA060021B6060021F8B50D46064630B31D
:1007000029B311F0070422D1124F97F83430012B8E
:1007100002D16FF00B00F8BD032B02D14FF0FF3078
:10072000F9E700F063F80028F8D02846FFF7E8FC66
:100730000028EEDB07F024FD3046F96A02F0B0FB3A
:10074000FFF792FE0323204687F83430E3E76FF08B
:100750001500E0E79806002110B5074C94F83430F6
:10076000032B03D102F0B8FB03F0B0FB0EF00CF941
:10077000002084F8340010BD9806002150B1074BCA
:1007800003F1140253F8041B934240F8041BF9D1FF
:10079000002070476FF01500704700BFAEF80101F0
:1007A00008B502F047FB03490320BDE8084000F00C
:1007B00069B900BFDD00000108B502F04FFB034935
:1007C0000220BDE8084000F05DB900BFB90000019B
:1007D00002680020014B1A60704700BFD00600215C
:1007E000014B1B68184700BFD0060021024B186858
:1007F000003818BF01207047D0060021F7B5044625
:100800002D4E071D2C48376003F078FB0228054663
:1008100006D1294920460DF023F9284603B0F0BD42
:10082000042842D13378092B0AD0262B1ED031461A
:1008300020460DF08FF9B0F5817F2DD3722112E0A3
:1008400005213E200DF0DEF80028F0D1F37801A953
:100850003279684643EA0223ADF800300DF031FDED
:100860000028CFD053210820FFF7C2FD1A213E20D7
:100870000DF0C8F80028DAD17368694601A8C3F3FF
:100880000F23ADF8043011238DF806300DF033FD41
:100890000028B7D06521E6E70028B3D0A1782078FA
:1008A0000DF0B0F80028B8D1ACE70828B5D102495E
:1008B00020460DF00DF9B0E7D4060021074B4FF0AC
:1008C000FF3141F6FF72C3E9001205490022C1E978
:1008D00000221F21C3E90212704700BF000000215F
:1008E000D80700213F280CD801380B4BC0F3421227
:1008F00000F01F0053F8223023FA00F000F001004E
:100900007047FF2806D04038044BC0F3421200F075
:100910001F00EFE70120704700000021D8070021E9
:10092000074B0146006849681A4603C240F48C220E
:100930001A6041F0107242F4FF625A60704700BFC3
:10094000000000210246024B0068516803C3704753
:10095000D80700210246024B0068516803C3704764
:1009600008000021431E3828DBB21FBF064A590980
:1009700003F01F0302EB81021DBF9068D84000F016
:1009800001000020704700BF00000021014B1860EB
:10099000704700BFE007002110B5FFF78FFF0EF092
:1009A00050F9034B04461B6803B19847204610BD1D
:1009B000E00700210A8870B595B2C67CC2F30E022A
:1009C0000488023602F118033444C35AA4B23344F3
:1009D0002344013BB3FBF4F303FB0422438892B2AC
:1009E0009342044B8BBF2B40AB4313439BB20B8012
:1009F00070BD00BF0080FFFF4A1E062A08B50346EF
:100A0000084604D84FF4D1711520FFF7F1FC094ACC
:100A1000914202D940F2A311F6E711B903B119606E
:100A200008BD2BB11B680022C3E901211A1D1A6001
:100A30000430F5E7FAFFFF7F10B5114B00EB4104DE
:100A40001A786389B3FBF2F303FB0223013A1A44D9
:100A5000B2F5706F0279807828BF00231A440B1812
:100A6000B2FBF0F100FB11215B1AB3FBF0F100FBCC
:100A7000113313446FEA43436FEA5343638110BD5C
:100A8000E4070021024B03EB80035960704700BF6D
:100A9000E4070021034B03EB80035868003818BFBC
:100AA00001207047E40700212DE9F04F10F0070AFC
:100AB00085B0054604D040F261111720FFF798FC7D
:100AC000534F04464FF0010B07F14C06B146B046B8
:100AD00057F8043B8DF80BA03BB101A898479DF84F
:100AE0000A30082B01D9E821E7E79DF80B1041BB3C
:100AF00005B131604F4506F10406E9D1002D6ED0F5
:100B00000022DFF810911227964689F8002058F845
:100B100027A0013FBAF1000F54D09AF804609AF868
:100B200002C0FF2E5FD039460023481C37D19C44B9
:100B3000BCF1FF0F3ED90AB189F800E040F227115D
:100B4000BBE79DF80AC04B1D60465A0004EB430307
:100B5000022838BF0220441E40422344BDF808400A
:100B60006444CCF1000C0340013C04EA0C04B4F5ED
:100B7000803F01D3F821A0E775B19A1A32609170D5
:100B8000148082F803B09DF80C00107101984FEAB0
:100B9000104C1081A2F806C004FB0134AAE758F8F3
:100BA000210028B190F804B0B34504BF80781B1829
:100BB0000139BAE7DBB2E6458AF804303CBF5FFA98
:100BC0008CFE01227B1CA2D10AB189F800E012261A
:100BD00040F6FF6A58F82670B7B9013EFAD2601B9A
:100BE00005B0BDE8F08F0023E5E707EB410309F10D
:100BF00001093846A3F80AA0FFF71EFF5FFA89F142
:100C0000BB788B42F1D8E8E74FF00009F6E700BF68
:100C1000E8070021E407002138B54FF6FF730246CC
:100C20000380184B03EB8103186DA8B18478037916
:100C3000B3FBF4F104FB1133DBB2194600EB4105C1
:100C4000B5F90A50002D0EDB0131B1FBF4F504FBC0
:100C50001511C9B28B42F1D1002038BD6381BDE8C6
:100C600038400DF02CBD00EB41046389C3F30E0343
:100C70001380C278002AF1D14FF4D5711720FFF705
:100C8000B7FB00BFE40700211C4B03EB810370B5E9
:100C90001C6D054644B3030404D54FF4DC711720E2
:100CA000FFF7A6FB014620460DF0ECFCFF280146AD
:100CB00004D02046BDE870400DF001BDA078B5FB22
:100CC000F0F300FB1353DBB219460A1D04EB420696
:100CD000B6F90260002E09DB0131B1FBF0F200FB36
:100CE0001211C9B28B42F0D1002070BD8B4201D0ED
:100CF0000023E37004EB42025580DAE7E4070021A9
:100D0000094B03EB8103014610B51C6D20460DF025
:100D1000B9FCFF28014604D02046BDE810400DF084
:100D2000CEBC002010BD00BFE4070021F8B5104B79
:100D3000074603EB810301461C6D20460DF0A2FC23
:100D4000FF28054611D0E288238953EA024606D0DF
:100D5000014620460DF0B3FC01463846B047204618
:100D60002946FFF769FE0020F8BD0520FCE700BF1B
:100D7000E407002138B50E4B0446827903EB820369
:100D8000186D08B9052038BD8278E1799142F9D211
:100D90004B1CE37100EB41035D89B3F90A30002B72
:100DA000F3DBA5800DF08BFC20600020EBE700BF9B
:100DB000E407002170B5044610F003000E4603D08E
:100DC0004E211820FFF714FBFFF716FE054624B14D
:100DD000034831460460FFF70FFE284670BD00BF90
:100DE000800800212DE9F14FDFF870B01E4607465C
:100DF0000D46DBF8003090469DF828A09DF82C9019
:100E00001BB960211820FFF7F3FA5246092140462A
:100E10000DF0B8FA4A4684B2092130460DF0B2FA14
:100E200081B2DBF8000021440DF000FC386018B9F5
:100E3000286001B0BDE8F08F0444534641460922C2
:100E40002C6038680DF061FA4B460922314628685B
:100E500001B0BDE8F04F0DF058BA00BF8008002186
:100E600070B50E4604460DF0A0FA054630460DF06A
:100E70009CFA044B2A1821461868BDE870400DF012
:100E8000FABB00BF80080021024B186808B10DF0C2
:100E9000C1BB7047800800211F2AF8B504461346DD
:100EA0000ED89200033222F00303B3F5803F2DD217
:100EB000184DACB1A00710D05F210920FFF798FAB8
:100EC000FF2B4FEA420204D9FF339A42A8BF1A46C9
:100ED000E8E77C2AB8BF7C22E4E729706C602B81AC
:100EE00022F0030228230127120403FB01F06B68A0
:100EF0000025120CEEB2B14200D8F8BD14B126188C
:100F00001F705E60104401352833F3E74FF0FF3067
:100F1000F3E700BF84080021154A002170B553682B
:100F20001578C8B2854203D8AB210920FFF760FAD3
:100F30001C461846013114F8286B0EB92346F0E719
:100F40000021997001241289996103F126055C70D2
:100F50009208D96103F11E04596824F8022FA542B2
:100F600043F8041F1144F8D100234361037070BD9E
:100F7000840800210A4B1B89B3F5FF7F4FEA9300D9
:100F800006D25A089B1A9BB2984238BF184670473F
:100F9000B3F5EE6F01D8FF22F4E740F27263F3E796
:100FA000840800214B782DE9F04106460C4602F0FA
:100FB000040702F0FB05E3B1A5BBFF23A3707B0888
:100FC00004EB57073A7D032A02D1022D18BF0133E3
:100FD000E2180121117503F10C01002204EB8303D7
:100FE00024F811205B68A27030463360B280BDE8FF
:100FF000F081002DE1D1012301F11E028D61204617
:101000004B7004F1260C1A4BCD611B8949689B0873
:1010100022F8023F944540F8041F1944F8D10023F8
:101020006361CAE7D1F8048014220021A01861701E
:101030000CF0CCFB0E4B1B89B3F5FF7F0FD25A0887
:101040009B1A9BB208EB0301C4F804802384A160BF
:101050006284C4F80C80A3842161E284ADE7B3F517
:10106000EE6F4FF0FF02EBD940F27263EAE700BF88
:10107000840800212DE9F84305460C46F720052198
:1010800091460DF07FF9061E21DB1DB906FB04F029
:10109000BDE8F88315F0030703D098211920FFF766
:1010A000A7F9DFF83080C8F81050A8F81460BBB278
:1010B0009C42EBD9B8F814504B46D8F810000522E2
:1010C000F72107FB050001370DF01FF9EFE74FF09F
:1010D000FF30DDE79808002107B5CDE900230B4676
:1010E00003490246081D0DF029FC03B05DF804FB1E
:1010F000B008002113B5064CCDE900230B4602468B
:1011000004F1080104F10C000DF018FC02B010BD50
:10111000B0080021144B012200214FF0FF309A60EB
:10112000C3F80012C3F80803C3F80015C3F8042578
:101130009A60C3F808034FF48040C3F80015C3F861
:10114000042503F5805341F6F8720849C3F80825D1
:10115000C1F88000BFF34F8FBFF36F8FC1F88001DC
:10116000C3F80825704700BF00E0004100E100E03F
:101170008C463422064B00B50CF8032B8E4607CB69
:10118000CEF80300CCF80410CCF808205DF804FB7E
:10119000CC08002110B5154C08F09CF807F096F922
:1011A0000021636A608C9847237E9BB9104B628C48
:1011B00093E8030003F0E4FDE36A188803F014FDEC
:1011C000636B94F8301094F831009847002384F84A
:1011D000383010BD94E8070004F10C0383E80700E1
:1011E000044904F119000FF020F8DFE7C0080021DE
:1011F000E808002171110001034B93F8383003B95E
:101200007047FFF7C7BF00BFC008002140F29D41F3
:10121000062008B5FFF7ECF808B5094B93F838201D
:10122000022A07D1DA7A42F00102DA72BDE80840F8
:10123000FFF7B0BF40F24F212720FFF7D9F800BFDA
:10124000C008002138B5374D044695F828300BB159
:10125000C3070ED4012918D82B6C20469847A0B19B
:1012600095F8300088B995F8282082B98CB92046C5
:1012700038BD6B8F1807EDD5EA6B137803F00303C5
:10128000032BE7D1D378022BE4D1012038BD002C09
:10129000EED195F844400CBBE86C0EF01EFFA0F1B7
:1012A00001002B6DB0FA80F0400923B395F8282097
:1012B0006B8F62B19A070AD5EA6B137803F00303C8
:1012C000032BE2D1D078023818BF012038BD002BA3
:1012D000DBD1204380F00100C0B238BD95F8453025
:1012E000032B10D1EB6BDB78022B18D0A86C0DF020
:1012F000DBF80446D0E7B5F85430002B14BF0020CB
:1013000000F00100D2E7A86C0DF0CEF804460028EA
:10131000C2D101F0FBFF80F00100C4B2BCE70024A1
:10132000BAE700BFC0080021F8B52A4C0646E56AB6
:1013300094F85C3095F89420E76C03EB820095F804
:101340007510A765FF2804D11EB995F874308B423B
:1013500026D007F0B3FC95F89430002B34D0206EE3
:1013600008F0D0F894F82830D5F8F020003B216E32
:10137000626718BF0123D5F8F420A06D84F87C3093
:10138000A26707F069F896B1A88E07F057FC002015
:1013900095F8741008F076F9022384F83830F8BD17
:1013A000002ADCD1384608F0ADF807F08FF895F840
:1013B00075302A8F033B012B8CBF0020282010445E
:1013C00080B208F005F9DFE7A06D08F09BF807F0A0
:1013D0007DF8D8E7C0080021F0B5844C002383B025
:1013E000E56A8DF8053095F8942094F85C3095F80E
:1013F000741003EB8203FF2B04D118B995F87530F4
:101400008B4202D0FF2007F059FC95F88A30032B5D
:1014100000F2E780DFE803F0021D837394F88B305D
:101420007348ADF80630A5F8643001F049FF002894
:1014300040F0A8800DF105020DF10601A06C0CF042
:10144000DBFF0746E06320B195F8CF30002B00F0BA
:10145000AC80684B1F46E36395F88B203B78D20045
:1014600003F0030603F0F30302F00802032E43EA3D
:10147000020395F88C204FEA820202F0040243EA4C
:1014800002033B705ED0A06C0DF00EF8002840F017
:10149000818001F03BFF80F00103E06B1B01DAB2B9
:1014A0003B7823F0100313433B7043781BB195F84E
:1014B0009330002B51D108F025F807F007F802F01F
:1014C000EBFD032E01D1002868D1E88E07F0B6FBB2
:1014D00095F875100120012508F0D4F8E06B84F828
:1014E0008D500EF0FAFDE36B84F838501B7884F8C9
:1014F000440003F0030384F8453003B0F0BD3C48DA
:1015000001F0DEFE002862D0E76BFB781B2B15D1C3
:10151000012105F1100007F019FCE76B0EE0B5F8AA
:1015200064300DF105020DF10601A06CADF8063036
:101530000CF062FF0746E06300284DD0012384F8D9
:101540008C3089E7FA78022A2CD0A06C0CF0ACFF22
:101550000301E06BDAB23B78A3E7206E07F0D2FF1D
:1015600094F82830D5F8E820B3FA83F3E16B62678A
:101570005B09D5F8EC20206EA26784F87C3006F079
:101580002FFF9CE70121E76B85F88510FB781B2B6B
:10159000D4D1BEE7E06B10223B7882E701200AF04D
:1015A00087FB92E7384600227BE79DF8053033B190
:1015B000BDF8062001237A7084F88C304CE7038054
:1015C00001218370E06B0EF078FDE76BF0E740F2ED
:1015D000FB212720FEF70CFF40F2F1212720FEF728
:1015E00007FF40F209312720FEF702FFC008002163
:1015F000FC080021480900212DE9F047414C82B048
:1016000094F83830012B76D1E66B07465FFA83FAFF
:101610008846304696F80090E56A0EF05AFD30464E
:1016200009F003090EF051FD30460EF056FD95F815
:1016300084307678002B38D1B9F1030F48D0002ED2
:1016400018BF4FF0020A95F8943085F88AA0F3B1DC
:10165000E36A94F8282093F87530003A03F1FF33D9
:1016600018BF0122DBB284F87C20D5F8F020032BD0
:101670006267D5F8F420A26794F85C2040D822492C
:101680000020CB5C00900120204906F03DFEB8F11F
:10169000010F05D127B939463846FFF7D3FD28B3E6
:1016A00002B0BDE8F047FFF775BD638F002104204D
:1016B00043F0040385F884106387636A984794F8BD
:1016C0002830002BB8D0B9F1030F85F886A0B6D129
:1016D00095F88A303BB9638F0220E16B43F0020337
:1016E0006387636A98474FF0030AACE702B0BDE82E
:1016F000F047FFF719BE40F204512720FEF778FEAD
:10170000FFF784FDC008002104D301012409002152
:1017100070B50D4B0D4C0E4A1A6094F838301BB161
:10172000F4212720FEF764FE03F0FF0206460D4673
:10173000227603F01DFB012104F188000EF0BDFCB0
:10174000E664256670BD00BF6C000021C008002162
:101750004C210001074A10B592F8383013B10C241F
:10176000204610BD03F0FF04147603F001FB204671
:1017700010BD00BFC0080021024B012283F88E205B
:10178000704700BFC0080021F0B585B0BE4C02AD67
:1017900085E8030094F838100A98002940F06C811D
:1017A000002B18BF002A00F06781B0FA80F14909C8
:1017B000002800F06181236404F12803606384F849
:1017C0008E1084F8301084F88F1084F8311084F86B
:1017D0008D1084F88C1061876184626295E8030043
:1017E00083E80300E56A07F0E3FA06F06FFE95F977
:1017F0007C0007F01FFCAE6A286A07F021FC304627
:1018000007F064FE95F8A40007F024FC94F8286023
:10181000002E00F0A6800FF027F9014695F87520FC
:1018200001209C3107F040FD984B994E186807F055
:1018300053FED5F8F800D5F8FC10D4F82CC0D5E943
:1018400005239CF87470A264C4F89030D5F8002188
:10185000D5F804310FC6D5F80831D5F80C21C4F8F5
:101860007D309CF88E30C6F80D20A3F12602012AA7
:1018700040F28B809CF88F20262A00F08680213B46
:10188000012B40F2E580242A00F0C380032F08BF1B
:10189000042705F13C06394630460EF047FD39462F
:1018A0000EF050F9B5F84830024695F875103046FC
:1018B000934228BF134684F88B300EF0ECFC95F869
:1018C000751095F894700429B5F8506008BF03218D
:1018D0000EF038F90FB9043080B2864228BF0646B0
:1018E000F6B284F8946002F0D7FB002840F08580BF
:1018F00094F8282084F85C60002A60D195F8933031
:10190000D3B195F87430012195F87E00013B84F83D
:101910007C10D5F8E8108000DBB26167C0B2D5F862
:10192000EC10032BA16700F2AC805A490092FB2215
:10193000CB5C574906F0E8FC0120FFF74DFD002382
:10194000B5F8880095F8A420A360C4E90033AB6F14
:1019500029886080218022710BB101221A6005B0B4
:10196000F0BD0FF081F895F874204B4B01463046DE
:101970004A4E33F8123003F5FA73A6FB036301EB0A
:101980009311833107F090FC4EE794F82830002B38
:101990003AD19CF80A32002B3FF47BAFFA1ED2B248
:1019A000012A60D9DA1E012A5DD9012B18BF012F47
:1019B0000CBF01230023C3F10203DFB269E795F8EE
:1019C0009430B3B1D5F8F03001206367D5F8F43026
:1019D00084F87C00A36795F87530013BDBB2032BDC
:1019E0004FD82C493246CB5C00210091284906F0A3
:1019F0008BFC0120FFF798FCA1E702F053FBB042FB
:101A000038BF3046C6B273E79CF8A232002BC5D16E
:101A10003FE794F82830002B3FF438AF9CF86D2056
:101A20009CF82E3113405A071DD413F001021CD12B
:101A30009B077FF52EAFFB1EDBB2012B13D9A7F15D
:101A40000107B7FA87F77F09C7F10207FFB220E75E
:101A5000242ADED094F82830002B3FF417AF9CF8EE
:101A60002E315907E1D5042713E7FB1EDBB2022B09
:101A70002CBF174604270CE740F283112720FEF7FE
:101A8000B7FCFFF7C3FB00BFC00800216C000021BA
:101A90002409002104D3010190D50101D34D621026
:101AA00008B5124B93F8382092B193F8282022B948
:101AB00093F83830012B14D108BD93F83820022A4E
:101AC0000AD1DB6AD3F8D801BDE8084007F052BD5F
:101AD000BDE80840FFF75EBB40F231212720FEF74A
:101AE00087FC40F22D212720FEF782FCC008002150
:101AF000FFF750BB014B1876704700BFC0080021AC
:101B0000014B93F88D007047C0080021044B93F8F7
:101B10008C0018B993F82300C0F30010704700BF81
:101B2000C0080021024B93F82300C0F3C0007047A7
:101B3000C0080021014B93F88F007047C0080021B6
:101B40002DE9F0433F4D83B004460F46AE6DD5F806
:101B50002C8030460EF0BDFA30460EF0B6FA304614
:101B60000EF0BBFA14F00109767815D00023A00717
:101B700085F8953036D498F88C10D8E93C3201318C
:101B8000013388F88C1042F10002C8F8F030C8F830
:101B9000F42003B0BDE8F08395F89530032B4CD8C2
:101BA000DFE803F01E070202A3073AD403B0BDE842
:101BB000F083A207FAD52B6D002B39D0B5F854204D
:101BC0001846A96D03320BF06BFE00220346314626
:101BD000D5F89000AB6503B0BDE8F0430CF0A5BCB0
:101BE000A107E3D52B6D1BB3B5F854201846A96D9A
:101BF00003320BF055FE0DF1020201A9A865D5F8DC
:101C000090000CF0FDFC01980CF0E0FC0122386023
:101C10003146D5F890000CF088FCB9F1000FC5D022
:101C2000A9E7D5F8900003B0BDE8F0430CF0E4BCA0
:101C300040F2F6412720FEF7DBFB40F2A2412720CD
:101C4000FEF7D6FBC00800212DE9F04FC14C85B04E
:101C5000002394F83820E56A022ACDE9023340F0E7
:101C60006482A66D07468846304696F800B00EF0AE
:101C700030FA814630460EF028FA824630460EF0A1
:101C80002CFA767895F89430002F50D0002B40F045
:101C9000A081A4F85460002E40F0AA81002095F89D
:101CA0008B20638C02F00102206543F400735245DF
:101CB000638400F00681D4F82CA09AF88A20C2B17F
:101CC000022A00F0D781002194F828308AF88A107F
:101CD00023B19AF88630002B40F0BF819AF8853006
:101CE000002B40F08E819AF88B3001338AF88B30CC
:101CF000638C95F88C2043F400634FF0000A0BF0DE
:101D0000030B02F0010263844A4500F0E48002F014
:101D1000C3F9BBF1030F02D1002840F0538195F8BD
:101D20009330002B00F0FE800026B14626E0002B09
:101D300040F04C8194F88F30013384F88F30638CFD
:101D400043F48063638495F87530033B012B04D919
:101D500002F0A2F9002800F08F80012009F0A8FF0E
:101D600006F07AFF042895F8939000F00D81B9F100
:101D7000000F00F086800026B146B24694F8283065
:101D8000D5F8E820B3FA83F395F87E0062675B0923
:101D9000D5F8EC20800084F87C3095F87430C0B21F
:101DA000A267013BDBB2032B00F2C4816A4A6B4994
:101DB000D35C00220092FB2206F0A6FAB8F1000FD5
:101DC00007D194F88F100120FFF73CFA002800F0AB
:101DD000C98007F0B5FC002E00F010814FF001091A
:101DE00003A90320FFF7ACFE638C5A0607D4636A8D
:101DF000002140209847638C43F040036384BAF18C
:101E0000000F09D094F82830002B40F09780B4F8E8
:101E100009300133A4F80930002F47D0B4F8053059
:101E20000022013384F88F20A4F805304C4802F0DA
:101E3000C9FE029830B10CF0C9FBE16A00220272BF
:101E400002F0A6F8039B33B1E16A00221A720C2259
:101E5000039802F06BF8B9F1000F2DD1638C1B06CB
:101E600007D4636A494680209847638C43F0800317
:101E7000638405B0BDE8F08F95F89330002B7FF4B4
:101E80007AAFB8F1000F40F0928094F88F100120E3
:101E9000FFF7D8F9002840F08A804FF00009CA46C1
:101EA0000020FFF799FA9FE74FF00109B4F80730D7
:101EB0000133A4F80730B9E7FFF76CF905B0BDE8C6
:101EC000F08F95F88C20BA460BF0030B02F001025C
:101ED0004A457FF41CAFBBF1030FD4F82C9040F0BF
:101EE000AC8043F480530120A16D6384638F89F833
:101EF000840043F001036387636A984799F88C3044
:101F0000013389F88C30002E3FF401AFD9F8F0305E
:101F10000133C9F8F030D9F8F43043F10003C9F8BF
:101F2000F430F4E6B8F1000F2AD194F88F100120B4
:101F3000FFF788F920BB4FF00009B1E7B4F805308E
:101F4000B4F80710B5F888200B4313433FF464AF8F
:101F50005DE700BFC008002104D30101240900216E
:101F6000E8080021002E9BD003A90120FFF7E8FD1F
:101F70000020FFF731FA03A90220FFF7E1FD33E764
:101F8000B94607F0DDFB2FE71B2E7FF6F0AEB9F167
:101F9000000F6CD1B8F1000F09D194F88F10012017
:101FA000FFF750F9824610B94FF0010978E707F0C2
:101FB000C7FB638C59063FF577AF4FF0000A4FF02F
:101FC000010914E7012009F073FEA8E606F0E6FA1D
:101FD000B0E606F0A3FA00287FF45BAED6B395F81E
:101FE0008C3003F001034B4500F09480A4F854605A
:101FF0003146D4F890000CF078FA50E64FF0010921
:10200000F2E600218AF8851001F06AF90021002823
:1020100000F09780638F082043F008036387636AAA
:102020009847DAF8E8300133CAF8E830DAF8EC30EB
:1020300043F10003CAF8EC3055E6BBF1000F3FF462
:102040005DAF4EBB99F88C30013389F88C3002F0CB
:1020500023F864E6A4F8546020E6638F10208AF821
:10206000861043F010036387636A984736E60026BC
:10207000B24683E602A9A06C0CF0E0F900285BD020
:10208000DAF8E8300133CAF8E830DAF8EC3043F136
:102090000003CAF8EC3016E643F4805399F89490A4
:1020A000638406F0D9FD042894F8943007D1B9F17F
:1020B000000F0CBF1F221B22934228BF13469E42D3
:1020C0001CD8236D1BB394F88E90B9F1000F27D163
:1020D00001F0E2FF95F89360002E7FF44FAEB8F167
:1020E000000F08D194F88F100120FFF7ABF881465C
:1020F00000283FF439AF07F023FB6FE694F8303047
:10210000012043F0100384F8303009F0D1FD01F0D4
:10211000C3FF04E6012384F83130FFF73BF8A8E65B
:10212000636A002120209847F1E740F28B51272075
:10213000FEF75EF9FFF76AF840F23B412720FEF711
:1021400057F940F252412720FEF752F919120001C7
:10215000491C0001F9150001F911000190F85430F3
:102160005A070ED413F0030301D11846704790F8B4
:10217000550000F0FD00A0F10100B0FA80F0400928
:10218000704790F85600A0F10100B0FA80F04009C5
:10219000704700BF08B501210020FEF7B1FD28B14E
:1021A00090F89400003818BF012008BD40F64C316B
:1021B0003220FEF71DF900BF343270B5044692B2EA
:1021C0001E460D460CF0B3FA24B1034B1C601D747F
:1021D0005E741D7170BD00BF70090021014B187045
:1021E000704700BF1100002190F86C00003818BF44
:1021F00001207047F8B50D46074640F67A4CBDF809
:102200001860A81FBDF81C1080B2604515D8941F37
:10221000A4B264458CBF0020012087B9194C2479F1
:1022200084B188B96FF45067EC19062C04D86FF4A8
:1022300050641419062C07D9F8BD0020EDE797F873
:102240007D40EDE70028F7D0954218D803FB011137
:10225000B1F5FA7F13DCA6F10A0340F676409BB293
:1022600083420CD810460CF097FB42F210734143A6
:102270005E43B6EB410F8CBF01200020DCE700205D
:10228000DAE700BF280A0021F7B5002506462C46EC
:102290003278ABB29A4207D8104B0020B3F85420E2
:1022A0001444A3F854400FE006EB85076946B7F8DD
:1022B00001000DF0A9FB70B90199B7F80330B1F82E
:1022C000A620934202D9122003B0F0BDD21A2344B3
:1022D0009CB2A1F8A6200135DAE700BF280A002148
:1022E000F7B5002304460E461746CDE9003368468D
:1022F000FEF740FD08B1002016E0009DA542F6D093
:102300003046EB1C0CF042FB3946AA780DF02EFB50
:102310000028ECD005F10A036A7A04F10A01607A18
:102320000DF024FB0028E2D003B0F0BD054A1346AF
:1023300092F8202053F8211B11F8030BC0F38010F2
:102340000DF014BB7C0F00210138C0B2032808B582
:1023500004D94FF461710620FEF74AF8014B185C6E
:1023600008BD00BF3CD301010138C0B2032808B545
:1023700004D94FF461710620FEF73AF8014B185C5E
:1023800008BD00BF94D301010138C0B2032808B5CD
:1023900004D94FF461710620FEF72AF8014B185C4E
:1023A00008BD00BF80D4010107B50E4AB2F8543011
:1023B000ABB1013B6946A2F854300DF025FB20B1CA
:1023C00040F216713920FEF713F8019A0120B2F895
:1023D000A6300133A2F8A63003B05DF804FB18461E
:1023E000FAE700BF280A002110B503210020FEF7FC
:1023F00087FC044670B90321FEF746FC044620B969
:1024000040F291313920FDF7F3FF034B93F95C1053
:102410000EF0C4FD204610BD280A00212DE9F04F22
:1024200087B007468846008804A90DF0EDFA0646F5
:1024300000287CD1059D95F86F31002B6DD0B8F147
:10244000020918BF4FF0010995F88F30232B95F83A
:10245000E13043EAD3030CBF89F0010A4FF0000AD0
:10246000D90702D4BAF1000F63D0B8789DF81040B4
:1024700008B900F097FD8DF80B00F87808B900F066
:1024800091FD2E4B8DF80C00D3F800B0BBF1000F7E
:102490000BD00AF0010320460DF10B0229460093F0
:1024A00003ABD847044600283AD19DF80B20B2B3BD
:1024B0009DF80C309BB3164695F87D2032B1B207DB
:1024C00003F0020337D5B3B302231E46FF2285F87B
:1024D0002D21B9F1000F28D195F82C2102F0FF042D
:1024E0001ABB85F82C8103A985F82E61284685F84A
:1024F0002F31BB88A5F83031BA78ADF80E308DF8A1
:102500000C20FA788DF80D200DF03DFB002385F8A6
:102510002D31204607B0BDE8F08F814694E70924AD
:10252000BAF1000FF5D00023C6E73A24EEE70446DF
:10253000EFE71A24EDE70924EBE700BF9000002144
:1025400010B50DF012FA214C01F084F800F038FDBE
:102550000DF043FE02F0A4FB01F0B0FA01F086FAA0
:10256000012000F0D5FC0021194B1A4A19601A4BC2
:10257000A4F854101A601B2259839A80F922998377
:1025800099771976154B22835868154A1B89226062
:102590001422E06104F12400A176A180A1752384B6
:1025A0000BF014F9012342F2107204F13A0084F89E
:1025B000243084F83930C4E90A220FF01CF804F101
:1025C0004400BDE810400FF03BB800BF280A0021CE
:1025D0007000002103021B00BC0E00213CD301014E
:1025E0001B004801044B41F64C521B215A611974DF
:1025F000C3E90222FFF7A4BFBC0E002173B5344D1E
:102600000446AB68C363334B1B79003B18BF0123FF
:1026100080F87D30304BC3610EF0E1FA064600F0E1
:10262000BBFC8306297C53BF1B236B88AA881A46F0
:10263000A4F86630294BA4F868201B6884F844107D
:10264000A4F846601BB194F97C1020889847244B6D
:102650001B6813B1234920889847234920460DF071
:1026600092FA01236386214B1B6813B10021208855
:1026700098471F4B1B6813B10021208898471D4BBA
:102680001B680BB1208898471B4B1B680BB1208837
:102690009847AB8804F114006A88697803330332E1
:1026A00001919BB2297892B2009104F11801FEF7D2
:1026B00099FB636923B940F2C5613920FDF798FEA3
:1026C000A36913B940F2C661F7E7002002B070BDFC
:1026D000BC0E0021280A002100093D0080000021D5
:1026E00078000021300A0021D60E0021940000213C
:1026F00084000021880000218C0000212DE9F34195
:1027000004460E460EF08BFC002800F0B0802046F8
:102710000EF009FD30B1B6F80130013B7F2B01D935
:10272000122004E020460EF002FD18B90C2002B081
:10273000BDE8F08120460EF0E4FA0028F6D12046EC
:102740000EF016FC07460028F0D1204604F052F89F
:102750000028E5D042F21073B6F80180F1782046E7
:1027600003FB08F80EF0CAFC04213078FEF7C8FA23
:10277000054606213078FEF7C3FA2DB140B141F687
:102780007B413920FDF734FE08B3054690F8BD7053
:10279000384E3368DBB1403528460EF05DF9B0B1F4
:1027A00028460EF04DF990B93FB1334B28461B68CF
:1027B000984760B141F68F41E3E730493A463368C4
:1027C00028464969984710B141F69441D9E7204617
:1027D0000EF0A1FC014640B94246204602F09AFFA5
:1027E000002842D041F69D41CBE720460EF09BFCED
:1027F00040B902210DF10600FEF70EFA054658B960
:102800000D2094E720460EF0A1FC0028F1D11C4BCE
:102810001B79002BEDD183E700210DF00BF9BDF8FA
:102820000630204629462B800EF0BBFC20460EF0D9
:102830008DFC88B9216A20460EF092FC014628469C
:10284000FFF7DCFE42462946204602F063FF0246BF
:1028500020B14FF4E65194E70121F0E7084B9B6D5E
:102860001BB105F591712846984700205FE742208B
:102870005DE700BF740000217C000021BC0E002138
:10288000280A002108B50378032B0ED803F0FD03B6
:10289000012B074B06D1074A07481A6001F040FB9D
:1028A000002008BD00201860F8E71120F9E700BFFC
:1028B0007000002189220001A9230001074B028832
:1028C0009B889A4208D3B0F803309AB222B1044AE6
:1028D0000020A2F85430704711207047BC0E002130
:1028E000280A0021024B1B6803B118470C207047CF
:1028F00070000021034B5A8802801B7883700020EF
:10290000704700BFBC0E00217FB5837806461A2BA6
:1029100008D8042B04D9334A22FA03F3DB0705D481
:1029200012251AE0292B01D03B2BF9D13088B0F5C4
:10293000706FF5D269460DF067F888B9019B93F87E
:10294000202102F0FF05C2B9B27883F82121FF22CD
:1029500083F8202168460DF019FC284604B070BDAC
:1029600009213088FEF7CCF90446002837D002A9A7
:10297000B0F8AC010DF048F808B10C25EDE70821DE
:10298000B4F8AE01FEF7BCF920B940F62E2139208B
:10299000FDF72EFD03781BB994F8C831032BECD159
:1029A000039B93F83621002AE7D194F8F02102F036
:1029B000FF05002AE1D1B4F8B021A3F8382194F83A
:1029C000B82183F83A21027D83F83B21B27883F85D
:1029D0003C2184F8F021FF2283F83621BDE702254F
:1029E000BBE700BF2000380438B50278447802F015
:1029F000010302F0020254EA030101D1112038BDA3
:102A0000BAB98578002DF9D0002B18BF002400E05A
:102A10001D4620460BF0E9FF0028EFD028460BF0BA
:102A2000E4FF0028EAD0054B00209C76DD769883F1
:102A3000E5E7002BECD000242546EAE7BC0E002198
:102A400013B5008869460CF0DFFF18B10224204658
:102A500002B010BD9DF8003001984BB90BF0A9FFF2
:102A60000028F3D0019890F8323123B13A24EEE7F0
:102A70000BF0ADFFF4E790F8DA3003F0FF04002B21
:102A8000F4D190F8D1309B0706D1FF2380F8323182
:102A900068460DF07BFBDAE70249D2300DF0C5FB4A
:102AA000D5E700BF9D090101F7B5067804460F463A
:102AB000EF2E03D91226304603B0F0BD90F9012065
:102AC0004378002AF6DB82789207F3D113F01000E6
:102AD00048D19D0603F0030241D5002AEAD1190727
:102AE0004FD503F06702012AE4D1627A013A062A3F
:102AF000E0D8A27A032ADDD813F0040102D1023A09
:102B0000012A03D8E27A012AD4D811B9A27C032A77
:102B1000D0D8227D002847D0012ACBD1237E012B9B
:102B2000C8D8002850D06378D90703D500F0B2F98F
:102B3000002850D06378227D03F01803082B5AD167
:102B4000022A48D103213046FEF7DAF8054600286C
:102B500057D00EF0D6F800285FD00C26ABE7032A3A
:102B6000BDD1A7E713F0600FA4D103F00702052A37
:102B700005D003F00F010D22CA40D2079AD51D07D8
:102B8000B3D42179E278E57942EA0122617942EA17
:102B90000142A17941EA0521257A41EA05418A42AB
:102BA00088D81F2AA1D885E7022A04D103F06F0331
:102BB000092B7FF47FAFA37D013B022B3FF67AAF59
:102BC000E37D0F2BAAD975E700F0ECF9820707D453
:102BD000237D022B01D111266DE7A37D022BFAD0B4
:102BE00000F0E0F943079ED4237D032BF3D0A37DAF
:102BF000032B98D1EFE7022AA4D0237F002BA1D08A
:102C0000E9E703213046FEF73FF80546002843D0A8
:102C1000224B93F95C100EF0C1F9002130460EF002
:102C2000C6FC28BB28460EF073FA21463870E074C3
:102C3000284603F039FEE37E0646002B3FF43BAF07
:102C400000287FF438AF0246E96C6846FEF7AAF91F
:102C50003246E86C01210BF0BFFDE96C68460422A6
:102C6000FEF7A0F932463146E86C0BF0B5FD22E7DD
:102C700040300DF0F1FE0028D4D0637813F0330F0C
:102C80007FF418AFA67D2846296A0EF069FAFFF78F
:102C90005BFB8642C6D060E707260CE7280A0021C6
:102CA00030B502798BB00346042A4FD84088B0F57E
:102CB000804F4BD8264900241144ADF800408DF8D0
:102CC00008408A7C4D7B42F010028DF8244042EA95
:102CD0004502CD7D097F42EA850242EAC10269468A
:102CE00002F01F028DF80020BDF80020ADF8092089
:102CF0001A888DF80E00000A8DF80B20120A8DF844
:102D00000D408DF80C208DF80F008DF810405A7B87
:102D1000D3F807008DF811205A79059002A88DF894
:102D200012209A798DF81320B3F80B209B7BADF815
:102D300018208DF81A307F238DF81B304FF00113C7
:102D4000CDE90734FFF7B0FE0BB030BD1220FBE732
:102D50003CD301010278034672B1427862B14288E5
:102D60001A2A09D982881A2A06D90068034A1060EB
:102D700000209B889380704712207047BC0E002172
:102D800002680020014B9A60704700BFBC0E002112
:102D90000378A3F10A02112A9BBF024A00201220E5
:102DA00013747047BC0E0021014B18760020704749
:102DB000280A0021014B587600207047280A00217C
:102DC000024B1B6803B1184711207047980000217F
:102DD00008B503F0F1FC02F09BFD0248BDE8084095
:102DE00003F0D4BC880A002108B50CF0BCFD074BE9
:102DF000184603F58471FEF78BFC02200BF067FC8C
:102E00000020BDE808400BF062BC00BF880A00212A
:102E100008B50122064B83F80A2203F0D5FC04F022
:102E20007FFBFFF7E1FFBDE8084001F05FB800BF9E
:102E3000880A002110B5064C064904F503700CF011
:102E400013FC04F504700449BDE810400CF00CBC00
:102E5000880A00219C000021A400002110B5094C23
:102E6000094904F503700CF0FFFB04F504700749F1
:102E70000CF0FAFB04F505700549BDE810400CF0B4
:102E8000F3BB00BF880A0021AC000021B400002180
:102E9000BC000021014B93F80A027047880A002108
:102EA00038B5094C0D4600F0FDFFD4F80C02C4F80B
:102EB00004510CF0D1FBFFF795FB01F029F9012338
:102EC00084F8183238BD00BF880A0021014B93F8FE
:102ED00018027047880A002110B50C4CD4F8100273
:102EE0000CF0BAFBD4F814020CF0B6FBFFF728FB89
:102EF000202000F02DF8262000F02AF8292000F0EC
:102F000027F8002384F8183210BD00BF880A00217A
:102F1000014B83F819027047880A0021014B93F88E
:102F200019027047880A0021C208074900F007000B
:102F300001238340885C03438B5404490B789342FC
:102F400038BF13460B70704718000021A20C0021F7
:102F50000F4B012110B503EBD002C40800F00700AD
:102F600001FA00F0195D21EA0001195509490B78B1
:102F7000A34205D1002012F8014914B100B10B7031
:102F800010BD002BFAD0013B0120DBB2F3E700BFFC
:102F900018000021A20C0021014BD3E90001704769
:102FA00018000021054B1868C0F3C022C0F30020B0
:102FB000400040EA820040F0010070471800002104
:102FC00008B509F0A9FF0023074A32F8231081420F
:102FD00005D302EB83029378044A137008BD0133D2
:102FE0000C2BF2D10023F7E764D30101A30C0021DD
:102FF000024B1878072828BF07207047A30C002130
:1030000010B54468238884F87D11A4F87E3194F8C3
:103010007400FFF7A9F984F8800194F87500FFF7B0
:10302000A3F9054984F8810104F5BA700DF0FDF8A3
:10303000002384F82C3110BDEDF6000140680749EB
:10304000038800F26710A0F8093010F8FB3CC37247
:1030500010F8FA3C03730DF0E2B800BF03F700016B
:103060002DE9F04389460979456885B099F80580CE
:1030700001F00701044695F88E7008F007084B1E12
:1030800008F1FF320B4002EA0802134395F88F2043
:10309000242A3DD105F18F060BBB40460CF072FB94
:1030A000002840D095F8743098423CD095F82E21F5
:1030B00018EA020F13D0222F35D095F86D2018EAA8
:1030C000020F30D10138013B574AC0B2DBB2104485
:1030D000032B007922D81A441379834223D995F817
:1030E0002C31012B60D11E212046FFF789FF222FB2
:1030F0005ED16368182283F811210A2283F88E209A
:1031000093F8CA30002B4BD14FF43171AE2008E058
:10311000222F40F0868005F18E06BDE74FF40F7137
:103120000620FDF765F908460CF02CFB38B195F840
:103130007530834203D095F82F311942CFD0B9F8BA
:10314000067003AB2846424600933B460CF027FB33
:10315000656800283FD195F82C31012B38D1B5F89E
:10316000883005F5287295F87410B5F830010CF028
:1031700075FB074640BB01462046FFF741FF37700D
:10318000636803F18F02964202D1002283F88F20F8
:10319000636803F18F0296423FD120460DF070F92B
:1031A000002005B0BDE8F083002385F82C319EE7B0
:1031B0000023204633700DF063F91821204605B036
:1031C000BDE8F0430DF088B9282385F88E30D7E7A5
:1031D00085F82C01D4E7B5F88830A5F8A072013F36
:1031E000FF1A47F6FD73BFB29F4206D92823204637
:1031F00085F8B13001F0AAFACAE795F88F300E2BA6
:1032000002D00B3B012B01D82A23F0E7BDF80C308C
:10321000A5F8A23226233370BAE7002283F8CA2029
:10322000BEE70220BDE700BF94D30101044B00229A
:1032300083F832204FF6FF729A86DA861A87704733
:10324000A60C0021054B9A8E824201BF002283F812
:1032500032204FF6FF729A86704700BFA60C0021FD
:10326000014BD886704700BFA60C0021084B4FF6D3
:10327000FF72998E914206D193F83220012A04D030
:10328000036001207047002303600020704700BFE7
:10329000A60C0021064B93F83220012A1BBF012007
:1032A000DA8E002083F8320018BF9A86704700BF7C
:1032B000A60C0021014B1887704700BFA60C002107
:1032C000064B0246198F988E884205D193F832003A
:1032D00018B101201360704700207047A60C002130
:1032E000094B998E1A8F914201D0002070474FF6FA
:1032F000FF729A8693F83220002AF6D0002201202D
:1033000083F83220704700BFA60C0021054B998E30
:103310001A8F914203BF93F83200B0FA80F040094F
:1033200001207047A60C002150B90A4A012013461B
:1033300003F8010B0868C2F801008A889A80704778
:10334000012805D1034B0A68D8719A608A889A814E
:10335000704700BFE00C002150B90B4B187888B1C2
:10336000D3F80120B3F805300A6001208B80704744
:10337000012806D1044BD87920B19A689B890A604C
:10338000F3E70020704700BFE00C002110B9044BA8
:1033900018787047012806BF014BD8790020704784
:1033A000E00C0021F7B58A8800238DF80600ADF8FF
:1033B000042008680B4A8DF807300146147802F59E
:1033C000A872019DD8B2844201D8082007E052F8C3
:1033D000087F01335668AE4208BF8F42F2D103B076
:1033E000F0BD00BFF00C0021084B0146002230B5B3
:1033F0005C7803F20113D0B2844201D8082004E0C3
:1034000013F8015F01328D42F5D130BDF00C00217F
:10341000F8B52D4C63782218013B92F80251DBB2CB
:103420008342637030D01A010101961C8F1C264420
:10343000274406F1100C56F804EB664547F804EBF8
:10344000F9D1823282312244214402F1100652F82D
:10345000047BB24241F8047BF9D1E118221891F8BB
:10346000026182F8026106267343704303F5857397
:1034700000F58570E618E35827182350B388BB8001
:1034800091F83A3182F83A312846FFF7ADFF082823
:1034900018D12378013BDBB29D42237012D02B332D
:1034A00005F12B0204EBC30304EBC20293E8030013
:1034B00082E803002078FFF797FF08281CBF241834
:1034C00084F80251F8BD00BFF00C0021F0B5254D85
:1034D00089B095F8984105F29911684622460AF09C
:1034E000DFF9214668460CF05FFA0446B8B300EBFA
:1034F000400102A8C9B2FDF773F9631E95F8A161F6
:103500000124DBB295F8981105E0721CB2FBF1F0D2
:1035100001FB1022D6B206F120020DEB020010F8DA
:10352000202C002AF1D103EB430100F8204C06EBDC
:10353000460220312A44694411F8187C82F8A271AD
:1035400011F8177C11F8161C82F8A37182F8A411E7
:10355000013BAA19DBB282F89941FF2BD2D109B005
:10356000F0BD00BFF00C002170B5064688B00C46D7
:10357000002A4ED0294A92F8A131D01890F899111A
:1035800019B9FF212820FCF733FF03EB4301013376
:10359000114491F8A251E57091F8A35191F8A4114A
:1035A00025716171002180F8991192F89811B3FB8F
:1035B000F1F001FB103382F8A13192F8C23123B946
:1035C000174902F5DD700CF02DFE65790D22002102
:1035D000684605F03F0545F0400565710AF0F6F8CC
:1035E000E37804AA69468DF80F30304623798DF8C8
:1035F0000D508DF80E30042309F092FF9DF81F3016
:1036000023709DF81E3063709DF81D30A37008B0C4
:1036100070BD03216018FDF7E3F8D6E7F00C002138
:10362000CD340001044B5A78824286BF1B1893F8B0
:103630004A010020704700BFF00C0021044B5A786B
:10364000824286BF1B1893F842010020704700BFDA
:10365000F00C0021064B00224FF461711A8083F8B0
:10366000C32183F8C421A3F8C61183F8C22170478F
:10367000F00C0021014B83F8C4017047F00C0021CD
:103680002DE9F0478246894617469846FFF78AFE9D
:1036900008280546064603D0FFF7A6FE082860D195
:1036A000324C6378072B5ED8082D15D12678731C11
:1036B000072E237003D96C212820FCF799FE06F110
:1036C0002B02D9F8000004EBC20344F83200B9F829
:1036D000042083F806A09A80657807F110026B1C1D
:1036E000290163704B1C234412F8010DBA4203F800
:1036F000010FF9D1813108F11003214413F8012D94
:10370000984501F8012FF9D12544102140460CF0CD
:10371000DDF9102185F8420138460CF0D7F985F81B
:1037200002616678002385F84A013146104885F821
:103730003A310CF039F90128054607D831460D48D1
:103740000CF032F9002818BF0135EDB284F8985119
:103750000025284684F8A151FFF7B8FE2846BDE8A9
:10376000F0871220FBE70720F9E700BFF00C0021EB
:10377000320E00213A0E0021064B10B55878013860
:1037800040B2002800DA10BDC4B22046FFF740FE68
:10379000601EF5E7F00C0021014B83F8C301704770
:1037A000F00C0021014B93F8C3017047F00C00218D
:1037B000431E4AF2B7129BB293429DBF024BA3F83D
:1037C000C601012000207047F00C0021014BB3F826
:1037D000C6017047F00C00210A4B30B55C7884427A
:1037E0000ED9184490F802012B3003EBC004A579E0
:1037F0000D7053F8300010600120A388938030BD15
:103800000020FCE7F00C00210246074810B590F8B4
:10381000C34124B1417821B1023004F0C7FC2046F5
:1038200010BD0C46FBE700BFF00C00212DE9F74F5F
:103830002F4C9A46804689466378834256D923188E
:1038400093F8425185F00105F9B193F84A31E3B993
:1038500045F002070135BAF1000F18D1FA070AD571
:10386000062104EB0810524601FB0841823001F5A5
:103870008571FFF779FEBB0734D504EB081052467B
:1038800049460230FFF770FE2CE02F46E3E794F83C
:10389000A1614FF0010B002DE0D0A31993F899110D
:1038A000019399B90092DAB100F002FC019B06EB9A
:1038B0004601009A4FEA102C83F899B1214481F80F
:1038C000A201000C81F8A3C181F8A401013694F88B
:1038D0009831013DB6FBF3F103FB1166F6B2DAE76E
:1038E00047F00407384603B0BDE8F08F0027F9E73A
:1038F000F00C0021074B5A78824209D91A1892F825
:1039000042212AB9062202FB003000F5857070477B
:1039100000207047F00C0021064B5A78824281BF8C
:103920001B1893F83A01B0FA80F0400998BF0020C4
:10393000704700BFF00C0021F8B50E46074606217F
:10394000154630460CF0C2F8044670B10C4B00220C
:10395000587803F23913D1B2884202D801242046A4
:10396000F8BD013203F8015FF5E7314638460CF047
:1039700037F80828F3D0024B034483F83A51EDE7B7
:10398000F00C002130B5002442F21075A0F8404040
:10399000B0F844404C43B4FBF2F4A0F84440541E49
:1039A00005FB0343B3FBF2F3A0F84230084BB3FB33
:1039B000F2F30133A0F84830838F05FB0344436BD7
:1039C0005943B4FBF2F4B1FBF2F18463416330BDBF
:1039D000005A6202034B80F87C101B680BB1008810
:1039E00018477047C40000210B2808B504D940F2DD
:1039F000C7112920FCF7FCFC014B33F8100008BD6F
:103A00009CD30101074B93F900301844142804DCBF
:103A100010F17F0F03DB40B27047142070476FF046
:103A20007E007047B80E00217F2307B50DF1070017
:103A30008DF8073005F00AFE03469DF9070053B1E3
:103A4000094B5B785B425BB21844142806DC10F12A
:103A50007F0F05DB40B203B05DF804FB1420FAE7EA
:103A60006FF07E00F7E700BFB80E0021024B002286
:103A70001A705A70704700BFB80E0021054B1B78B2
:103A800033B9054B1A681B79026003710120704736
:103A900000207047BA0E002128000021054BFF22AC
:103AA0001A70054A016811600179117100221A70BB
:103AB000704700BFBA0E00212800002107B5064A52
:103AC00010681279009068468DF80420FFF7E6FF31
:103AD00003B05DF804FB00BFC3F801010346407862
:103AE000B0B1DB783F2B0BD80A4AD35C03F07F02DE
:103AF00090420CD08CBF0120002000EAD310704708
:103B000003F10A02D2B2022A01D8B63BECE7012047
:103B1000704700BFB4D301013F2908B5C17005D873
:103B20000C4B5B5C03F07F03437008BD01F10A039B
:103B3000DBB2022B04D8074B0B4413F8B63CF1E779
:103B4000FF2904D040F243412A20FCF751FC012315
:103B5000EAE700BFB4D301012DE9F347894669467E
:103B6000154698460BF050FF044620B9019E35B922
:103B7000012386F89530012002B0BDE8F08777690F
:103B8000294638460AF0E2FB01460028F4D0174BDC
:103B90005B88AB4227D338460AF014FD96F895307F
:103BA00082460480002B84700CBF494602210CF031
:103BB00084FA41462A460AF1030009F071FE2946BB
:103BC00038460AF0FEFB18B97E212B20FCF710FCCA
:103BD0009DF800302BB168460CF0D8FA019BA3F891
:103BE000CA410023C5E72046C6E700BFBC0E00213E
:103BF000024B987FC04300F001007047BC0E0021CB
:103C000083230B70014B1B78CB707047DC0E0021B7
:103C10002DE9F84FD0F804800D46D8F818603046EA
:103C20000AF0C2FC044618B9FF211020FCF7E0FBA3
:103C3000014630460AF0C6FCB4F800B082461FFACE
:103C40008BF9B9F1000F02D140F20311EDE71E4BE1
:103C5000C71C1B688BB9B8F80030A5F806B0AB805C
:103C600000236B729AF8003003F00303012B0FD08E
:103C7000022B0DD040F21D11D7E74A463946B8F85D
:103C80000000984704460028E5D12046BDE8F88F9B
:103C900030462B720AF09CFC044610B94FF4937125
:103CA000C3E7B9F1FB0F02D940F23511BDE728682F
:103CB00010B94FF49B71B8E74A46394609F0F0FD58
:103CC00030460AF0E0FBE0E7C80000212DE9F347A9
:103CD00005468A460527DFF86C81DFF86C91DAF833
:103CE000103053B11B7A1BB980211020FCF780FBE8
:103CF000DAF81040B4B900207EE0DAF80440237A04
:103D0000012BF8D0EFF3108372B6DAF804201268B2
:103D1000CAF8042003B962B6CAF81040237A0BB976
:103D2000A621E2E7267AF6B22772731E0B2B78D80B
:103D3000DFE803F074061E36713F4E3F3F3F3F659C
:103D4000636813B94FF4D771CFE7204629469847E7
:103D50000420EFF3108272B6237A052BD9B24FF00C
:103D6000000368D12372CAF81030B2B962B614E009
:103D7000636813B940F2B711B7E729462046984760
:103D80000346ADF80400C0B2C3F30723012B4BD0A8
:103D9000022BDED10023CAF8103000289FD02BE080
:103DA000636813B940F2BF119FE72046984700208F
:103DB000CFE7D9F80030002BF9D0324660682946A9
:103DC0009847A6F10A020420534253415B00DFE703
:103DD00063680BB9B52188E70D2200242A700122FF
:103DE00019885869AA70A5F803106A71AC710AF0B5
:103DF0004AFB0420CAF8104002B0BDE8F087D8F8AA
:103E00000030294620469847034668B10023022027
:103E1000CAF81030F0E74FF4FB7166E740F2F91191
:103E200063E74FF4FE7160E726720028E4D1002BAF
:103E30007FF455AF5FE711B940F21D2155E71846F1
:103E400093E700BFD0000021CC00002138B5134C0F
:103E500014220021201D09F0B9FC0125257404F16C
:103E600008031422002104F11800C4E9013309F009
:103E7000ADFC84F8245004F11C03094AC4E906335C
:103E80000023E362236384F83430C4F83530C4F887
:103E9000393084F83D30136038BD00BFDC0E00219E
:103EA000C800002110B5084C2378FF2B04D04FF434
:103EB000A0711020FCF79CFA09F078FB2070BDE897
:103EC0001040FFF7C3BF00BF2D00002110B5034C09
:103ED000207809F085FBFF23237010BD2D00002101
:103EE000014B187809F08CBB2D000021014B024AD0
:103EF0001A607047D0000021113C000110B506493E
:103F00000446FFF7E3FE28B920460449BDE8104007
:103F1000FFF7DCBE10BD00BFF40E0021E00E002153
:103F2000014B1860704700BFC8000021134610B550
:103F3000027A22B140F299211020FCF759FA0A4680
:103F400001460248BDE810400CF049B9E00E0021DE
:103F5000044890F834301BB903492C300CF05CB99C
:103F6000704700BFDC0E0021D10101010346064865
:103F700090F83E203AB190F83D2022B9034900F86C
:103F8000353B0CF049B97047DC0E0021013C0001C3
:103F90000A4610B5037A23B140F2A1211020FCF7A4
:103FA00027FA014607230248BDE810400CF017B974
:103FB000F40E00211346027A0AB1037270470A46D2
:103FC000014601480CF00BB9E00E002103460846FB
:103FD000F0B4B3F86020B3F8544093F875509442AD
:103FE000B3F85810A5F10305B3F84A7028BF14467A
:103FF000B3F86220EDB2B3F84E608A42A3F84A40AB
:1040000028BF0A46012DB3F8501087BFB3F852C03D
:1040100015464FF4296C4FF42965A142A3F84E5080
:1040200038BF2146624538BF6246A742A3F8501008
:10403000A3F8522026D1741B18BF0124B3F85C20CA
:10404000B3F85610B3F848609142B3F84C5028BF0B
:10405000114693F87420033A012A15D9B3F85A206F
:10406000B3F85E70BA4228BF3A468E42A3F84810B1
:10407000A3F84C2002D1954200D144B10549F0BCCF
:104080000CF0D3B80124D9E74FF42962EDE7F0BC76
:10409000704700BF31020101014B1878704700BF23
:1040A0001B0F0021014B1878704700BF2E00002124
:1040B000094AD2E90003434083EAB01181EA43216F
:1040C0004FEAF34311605360044B58434FEAF060EA
:1040D00000EB8000704700BF1C0F0021BB79379EAA
:1040E000094AD2E90003434083EAB01181EA43213F
:1040F0004FEAF34311605360044B58434FEAF060BA
:1041000000EB8000704700BF30000021BB79379E74
:1041100010B50A4C08210948FCF762FBD4E90032CB
:104120001343F7D0064CFFF7DBFF2060FFF7D8FF03
:10413000236860601843F6D010BD00BF3000002136
:104140001C0F0021174B184A9A60184A5A60184AE7
:104150001A60184A9A62184ADA62184ADA60184AEB
:104160009A61184A1A63184A1A62184ADA64184A95
:104170009A64184A5A62184B184A9A60184A5A6246
:10418000184ADA62184A1A61184A5A61184A9A613A
:10419000184A1A63184A9A64184ADA64184A9A63E1
:1041A000704700BFD40000211F0501014F05010128
:1041B000850601017D070101EF0701017548000136
:1041C000050801010D4B000179490001E5080101D5
:1041D0000D090101D9490001E00100213B05010160
:1041E000A508010127080101CB0701014B080101C6
:1041F00019490001BB0901015B09010145090101E0
:104200008B080101054B064A9A65064A1A66064B59
:10421000064A9A65064ADA65704700BFD400002155
:1042200095F8000161300001E00100216BF7000109
:1042300047F900013F2A2DE9F34105460C4643D8D2
:104240003F2A44D8DFE812F048009900B200BD00D0
:10425000D40093009300E000E200E8009300930094
:10426000ED00F800E20043004300FC0093009300DF
:104270000F010F01250125012C01430043006B01B3
:1042800080018D0193019901A401A601A801AA0151
:10429000B501BD01D401D60143004300C501DE01D3
:1042A000DC0143004300430043004300430043005C
:1042B0004300430043004300430043004300E00148
:1042C000E2014300D801DA01FF2A00F0A18140F2A7
:1042D000DD415120FCF78CF8456841F27073D5F848
:1042E0001412B5F80E22A1F57A7098420BD84FF44B
:1042F0007A73B1FBF3F303F550639BB2642001269C
:10430000B2FBF0F20CE040F2E2406FF45066B1FB19
:10431000F0F39BB29E19062EF0D90026B2FBF0F204
:10432000E3711B0A22712372B5F8183263721B0AFB
:10433000A372B5F81A32E3721B0A237395F817318A
:1043400033B905F5037305F5047228460CF025F919
:10435000B5F80C3263731B0AA373D5F810324EB153
:104360006422B3FBF2F36371C3F30723A37102B0BA
:10437000BDE8F08140F2E242F3E74668D6F8003249
:104380004B6096F804320B72406890F817313BB9D5
:104390000CF0B5F86B68B3F888301844A6F806023C
:1043A000B6F8063263721B0AA372E0E70378012BAA
:1043B000436802D193F8183101E093F82131237159
:1043C000D5E74368D3F848224A60D3F84C228A6084
:1043D000B3F850228A81D3F82822C1F80E20D3F8EE
:1043E0002C22C1F81220D3F80831C1F81630BEE7EC
:1043F0004268D2F8E6314B60D2F8EA318B6043680C
:10440000D3F80C31CB60B2E74368D3E7084602B07B
:10441000BDE8F04100F034BB02B0BDE8F04100F06F
:104420003FBB10230B7159234B7100238B715E230B
:10443000CB7120230B729AE7436893F81231BEE7E1
:10444000027843684AB993F8182132B193F81521DC
:104450000A7193F81431637189E793F8132122717B
:1044600093F81231F7E74368B3F860200A71120A33
:104470004A71B3F81A218A71120ACA71B3F85C2022
:104480000A72120A4A72B3F818318B721B0ACB7285
:104490006DE7436893F82E210A7193F82F31DAE71C
:1044A000476897F80A82A8F10303012B31D897F8DF
:1044B0007430DA1E012A2CD8B8EB030818BF4FF06D
:1044C000010897F80B020BF0DAF90646B8F1000F75
:1044D00022D197F80A020BF0D2F98046686890F86A
:1044E00017316BB946EA080313F0FF0306D00CF04E
:1044F00006F86B68B3F8883003449BB2A7F808321B
:10450000B7F808326671A3711B0A84F80480E3715E
:104510002DE74FF00008D4E74FF00008DEE72378DE
:104520004168204643F0200323700A7C4B7C01A99C
:10453000032A03F01F0308BF002243EA82138DF809
:1045400004300BF0CEFD12E743680F211888FCF70A
:10455000D7FB00F15B01204602B0BDE8F0410BF053
:10456000FDBD084602B0BDE8F0410DF034B8084684
:1045700002B0BDE8F0410DF036B82B4B1B68002BA4
:104580003FF4F5AE2946204602B0BDE8F041184799
:10459000264BF3E7264BF1E7264BEFE7264B1B684C
:1045A000002B3FF4E4AE0246232002B0BDE8F04108
:1045B0001847214B1B68002B3FF4D9AE024624203C
:1045C000F3E71D4B1B68002B3FF4D1AE02462520BC
:1045D000EBE743680F211888FCF792FB00F17D029E
:1045E00000F15B01204602B0BDE8F0410BF0C2BD16
:1045F000124BC3E7124BC1E7124BBFE7124BBDE7AB
:10460000124BBBE7124BB9E7124BB7E7124BB5E7BA
:104610004368204693F89722D3F8981202B0BDE879
:10462000F0410BF061BD00BFEC020021F40200215B
:10463000F0020021F8020021FC0200210803002101
:104640000C030021100300211403002100030021AA
:1046500004030021180300211C0300213F2803D874
:10466000064B53F82000704700F10A03DBB2022B1F
:1046700001D8B638F4E70020704700BFD40000210D
:104680003F2803D8064B53F82000704700F10A0377
:10469000DBB2022B01D8B638F4E70020704700BF28
:1046A000E001002130F8023CF7B504460E4630F830
:1046B000A85C73B101226846ADF801508DF8002066
:1046C000ADF80330FEF70EF918B195216320FBF722
:1046D0008FFE1B4B1B6813B1A4F128009847194BA0
:1046E0001B680BB1284698470A230027A6F80350F9
:1046F0003370B770637A54F8900C737109F0CDFE83
:1047000008B9BA21E2E72846FEF79CFD394628465B
:10471000FCF70CFB02212846FCF708FB18B90A4BF2
:104720001B6803B198474FF40173002003F00402A3
:104730001B0A62F3070063F30F2003B0F0BD00BF54
:10474000200300212403002128030021F7B5456838
:1047500004464FF6FF776E690DF102010DF101027B
:104760003046ADF8027009F047FE01A9304609F065
:1047700065FE40B1019809F029FF616800220272CC
:10478000FFF706FCE8E7044905F1A80003B0BDE81F
:10479000F0400BF044BD00BFA5460001F0B5044653
:1047A00085B00D46FF2600F8C96C10F8CA3CF3B17D
:1047B000184F3B781BB148211F20FBF719FE0C2135
:1047C000381DFCF70DF83E70002304F8C93C09239E
:1047D0002A4602F8033BD4F80930C5F80330D4F870
:1047E0000D305360D4F81130936005B0F0BD01A8CE
:1047F0000C21FBF7F5FFA4F52E73039AC3F80C21E7
:1048000001AB03CB44F8D20C44F8CE1C04F8CA6CBC
:10481000DAE700BF240F002110B5054C23782BB92F
:104820000C21201DFBF7DCFFFF23237010BD00BF10
:10483000240F0021024690F8EE31BBB990F8EF3119
:1048400003F0FF010BB100207047094B18780028D6
:10485000F9D01970D9680433C2F80C1103CBC2F82F
:10486000E601C2F8EA11FF2382F8EE310120704719
:10487000240F0021426838B592F88F3004460D4667
:104880003BB1142B05D0123B0B2B8CBF0120082011
:1048900038BDD2F81C317BBB92F8D03013B920461A
:1048A0000BF0DDFD6268D5F80E30C2F8DE31D5F8C8
:1048B0001230C2F8E2316368D5F81620C3F8082137
:1048C0001A88A3F8C1226A68C3F8C322AA68C3F889
:1048D000C7226368AA89A3F8CB226368002283F801
:1048E000EE2160680B4900F52E700BF095FC6368B3
:1048F000162283F88F200BE00C22204603210BF0B8
:10490000D2FD63683222204683F88F200BF0A7FD8A
:104910000020BDE79D47000138B54368044693F881
:104920008F201D2A04D04FF4DE711F20FBF760FD9D
:10493000002293F8D0101D8803F5D47083F8CF209F
:1049400069B10B4983F8D020A3F8B25183F8B121A3
:104950000BF062FC6368002283F88F2038BD0122CF
:1049600083F8B111A3F8B251024983F8B421EFE7FB
:10497000690701015B07010138B50578446825B96D
:1049800094F88F302BB101201AE0D4F88030DB0787
:10499000F9D44A680E4B896813400E4AC4F8E030D7
:1049A000C3F307630A4043F00803C4F8E42084F823
:1049B000E3300BF054FD25B9042384F88F30002038
:1049C00038BDD4F8803043F00103C4F88030F6E7F6
:1049D0002FC904F76FDB0080436810B593F88E2071
:1049E000042A2ED14A6800788C68C3F8E020C2F30C
:1049F0000762C3F8E44042F0080283F8E320002293
:104A000083F8CA2083F88E2008B983F8330193F81D
:104A10003421A2B993F88A2102F0FF007AB91A88EA
:104A200083F88B0103F5C170A3F88C214A68C3F8A1
:104A30008E218A680449C3F892210BF0EDFB002017
:104A400010BD0120FCE700BF69080101436893F82D
:104A5000342112B1084B1B68184793F88A2152B9C8
:104A60001A8803F5C1700549A3F88C211A2283F82E
:104A70008B210BF0D1BB70472C0300216908010189
:104A800010B50446FEF788FA034A044B02400B4077
:104A90006260A36010BD00BF2FC904F76FDB008008
:104AA00037B50C464568FEF777FA084B084A0340CD
:104AB0000A4095F8E01000930B4001928DF8003009
:104AC0006B4603CB6060A16003B030BD2FC904F713
:104AD0006FDB008038B5DB04154604D5037D13B1C8
:104AE0000023436338BD446B013444630BF046FF3D
:104AF000836B9C42F6D30023034943632846BDE8F9
:104B000038400BF092BB00BFD708010170B5446874
:104B10000546067894F88E30012B09D026B994F812
:104B20008F302BB101203FE0D4F880309807F9D4C2
:104B300094F8D1309A0715D40A79D80784F8DB2085
:104B4000B1F80520A4F8DC20B1F80720A4F8DE2095
:104B500043F0020284F8D12010D5194904F1D200A3
:104B60000BF063FB94F8D130D90712D4EEB994F866
:104B70008F3043B150214020FBF73AFC94F832319A
:104B8000002BEAD1EEE7012384F88F3028460BF0A2
:104B900066FC94F88E300020012B4FF0000304BF18
:104BA00084F88E3084F8CA3070BDD4F880309A070B
:104BB00001D55521DFE743F00203C4F88030E5E773
:104BC0009D09010170B545680446FEF72DFF054BB0
:104BD000014685F88D001B681BB12046BDE870407A
:104BE000184770BD34030021024B1B6803B11847FE
:104BF000704700BF30030021F0B51F4D00242B7813
:104C000014709BB1013B6D68DBB21E1B012E0FDCE3
:104C100005EBC40655F8347076688E4208BF8742AB
:104C200027D0B84271EB060612D214700020F0BDF6
:104C30001E197710C6F3470655F837C005EBC70EA7
:104C40008445DEF804708F412CBF33463446DCE7E0
:104C500005EBC30455F8335064688C4208BF8542A5
:104C600006D0A84271EB040428BF01331370DDE7BE
:104C70001C4601201470DAE7440F002110F00702EF
:104C800008B503D063214820FBF7B2FB18B1034BF2
:104C9000197258601A70C80008BD00BF440F002187
:104CA000014B00221A707047440F0021014B187A03
:104CB000704700BF440F00212DE9D3430BF0AAFE3B
:104CC0000DF1070207460E46FFF796FF90B90F4C0D
:104CD0002378227A9A420ED0626819469DF807E03E
:104CE00002EBC3008E4509D302EBCE020133C2E9C9
:104CF00000762370012002B0BDE8D08350E902891C
:104D0000013960E80289C9B2ECE700BF440F002115
:104D100037B50BF07FFE0DF10702FFF76DFF58B1BD
:104D20000A499DF807300A78013AD2B20A704968F8
:104D300001EBC3019A4201D803B030BDD1E902456D
:104D40000133E1E80245DBB2F4E700BF440F002184
:104D50000A460648822302F8033B0368C1F8033081
:104D60004368536083689360704700BF4D0F002114
:104D700016220021014808F029BD00BF4D0F002177
:104D8000F7B51E4C02AB03E90300637DA3B39DF8A6
:104D900000300D462BBBD1E972760BF065FE95F81D
:104DA0007420174B833033F812304FF47A7203F2C9
:104DB0003F63B3FBF2F3DB192A8846F100061B18A8
:104DC000228046F100066360A660B5F888300222B2
:104DD0000C4904F10C00638003B0BDE8F040FFF71C
:104DE000E9B8530608D50B882380D1F848326360B0
:104DF000D1F84C32A360E8E703B0F0BD4D0F0021BD
:104E000090D50101514D0001024B187A003818BFAE
:104E100001207047680F0021094B53F8203003F53B
:104E2000234370B5A13316464FF47A720C46B3FB98
:104E3000F2F5344404F0B4FF2C44204470BD00BFAC
:104E40007CD501012DE9F04F99468BB00023044633
:104E500088461746069390F875B00AF045FC05465B
:104E600094F87F00FEF7C0FD05440BF0FDFD94F8BB
:104E70008F3000F17306ADB2442B3BD00E2B39D0EE
:104E800094F88EA0AAF14402D2F1000A4AEB020A79
:104E9000002F5FD194F80432032B5BD1BAF1000FDD
:104EA00058D0B4F8A032434554D1D4F80C3220463F
:104EB000B4F8DC21C4F8F831E369C4F8FC31B4F883
:104EC0005A321344C4F8003203F0C6F841F64B538B
:104ED000D4F8A82294F8B4129A428CBF002301237C
:104EE00059B9E1698A421ED0208804930CF090FBE6
:104EF000049B18E04FF0010ACAE720880CF085FBFC
:104F000020B940F293713020FBF772FAB4F8B03256
:104F10006386B4F8B2328381B4F8A032C78143818A
:104F2000013B03823B4694F87E20002A36D1002BB9
:104F300035D1D4F8A42284F87E300223E262B4F89A
:104F4000A22284F804322286D4F8A822E261D4F89E
:104F5000AC22626204F50A73B4F888C00493A8EB2B
:104F60000C0CB4F858320FFA8CFCA8EB03031BB2FC
:104F7000002B1FDAD4E99023C4E9942300230122F3
:104F800084F81F32634694F80412032900F2BE81AC
:104F9000DFE811F0120025016D0046012BB14FF042
:104FA0004D12626300222287C3E74FF096122387D7
:104FB0006263BEE74A46E6E794F8751094F8D601B6
:104FC0000AF0F6FD8346E06A2946584407F068FF78
:104FD0002946C4F80802E06907F062FF94F87E30C1
:104FE00007A95B00DBB2034408A8C4F80C3204F044
:104FF000B7FB079B0093DDE90823D4E9940106F091
:1050000059FE054620460BF054FDD4F85C32E26AA6
:1050100094F875000693049204F0CAFE069B00F50E
:105020002340049A203BD4F80812A13013444FF4D3
:105030007A725B1A30319B1BB0FBF2F05B44324654
:105040005B1B1B1A94F875000693238E03EB41013A
:10505000FFF7E2FED4F85C22069B22309B1AC4F8CC
:105060001002B3F5A07F5DD240F2FC414BE7E36A4A
:105070002946D4F8FC01184407F012FF2946C4F869
:105080000802E06907F00CFF94F87E305B00DBB2A9
:1050900003442046C4F80C320BF00BFDE36AD4F84D
:1050A000FC511D44B4F8DC31002B40F09480B9F180
:1050B000000F00F0908094F8750004F079FED4F8A9
:1050C0000812D4F8483200F523406D1A94F8752080
:1050D000A130203D1D44A74B53F822204FF47A7392
:1050E00002F2E732D4E990BCB2FBF3F2A5EB0B0578
:1050F000B0FBF3F01544AD1B2D1AD4F8F831D4F8F9
:10510000002294F8750002FB0311238E32460695A7
:10511000303103EB4101FFF77FFE0123C4F8100299
:1051200084F80432E56904F13C00D4F80C32F43D13
:105130000699ED1AD4F81032AD1B9D4228BF1D46CA
:10514000002384F82832C4F8D851D4E994325B188B
:1051500042F10002C4E98E320BF09BF82844A4F817
:105160005882C4F82C02D4E98E23C4E9942302F0B7
:10517000E5F920B1D4F82C321E33C4F82C32B4F83F
:10518000C831A3EB08031BB2002BD4BF00220122BD
:10519000520084F83022BAF1000F40F0BA80B9F121
:1051A000000F40F0B98094F80432002B00F0D0805A
:1051B000E16904F50A70D4F80C32C91A0AF092FCBD
:1051C00080B2002800F0C480149B03B11880012035
:1051D0000BB0BDE8F08FD4F808126D1A8DE7D4F843
:1051E0000C02E269D4F80012121AD4F8F8515A43AA
:1051F000D4F8083206923033B4F8DC2105FB0133D1
:105200006244521A218E013A00FB0233324694F86E
:10521000750001EB4301FFF7FFFDC4F8100281E7C1
:10522000E16959430691B9F1000F2DD0B4F8DC01C2
:1052300050BB84F81F02D4F80C0200FB131E94F834
:105240008E300490262BCDF818E003D094F88F30E0
:10525000262B0AD1B4F8A032A8EB03031B0404D414
:1052600094F8A332002B18BF9B46B4F8DC017AB344
:1052700070BBD4E99251D4E99023AA4273EB0101A7
:1052800008D34FF4AA613EE694F81F0200287FF489
:1052900049AFD0E794F87520203D364B53F82230C3
:1052A000D4E99012CDE9021203F2E7324FF47A7199
:1052B00003F52343B2FBF1F2A1330592029AB3FB4B
:1052C000F1F3AD1A059A1544ED1AAD1B7544069518
:1052D00000EB0C05049B324658465D4330356D00AB
:1052E0002946FFF799FD41F64B53C4F81002E069D7
:1052F00098423FF617AF06AB32462946009304F5B5
:1053000004730AF072FC84F81F020BE74FF4AD61DE
:10531000F9E5B9F1000F1BD0B4F8F00110B3B4F8FF
:10532000F21194F8F4214D1CA4F8F21101FB0222B1
:1053300090420DDD002B0BDD0023A4F8F25184F820
:105340003032FEF7B5FE00F00700013084F8F401BA
:1053500004F50A7194F8200206F0BEFA20B940F272
:10536000B151D0E50146DCE787F0010784F81C72F3
:1053700000202DE77CD50101F0B5044685B018B9B1
:10538000AA213020FBF734F8072900F2F280DFE889
:1053900011F00800E400370037003200F000DC00B4
:1053A000EE0090F81C32B0F88820DBB1B0F81A3269
:1053B000934208BFB0F8CC319A1AA0F8CE21A4F8D5
:1053C00088302046D4E98E23C4E9902302F06CFD96
:1053D00094F8D331002B00F0B68005B0BDE8F04062
:1053E0000CF0AAB8B0F818329B1AA0F8CE31B0F879
:1053F00018329BB2E3E705B0BDE8F04004F0BCB959
:1054000006F0A6F9D4E99023801A61EB0301012884
:1054100071F1000302DA40F23C61B2E76FF0010380
:1054200083424FF000038B4102DA40F23D61A8E76E
:10543000E3690BB1B0FBF3F394F88F00B4F81A22D0
:10544000442810D094F88E10433901290BD90E2826
:1054500009D0B4F888100B449BB2D11A0D0444D57E
:1054600001339BB243E00132A4F81A22B4F85A3255
:1054700002AEB4F8885001333F4FA4F85A32B4F862
:10548000C2301D44B4F8C030013DED1AADB23B68E6
:105490005BB1B4F81A1200222046013989B298474C
:1054A000B4F81A321844A4F81A02B4F81A126B1A93
:1054B00018042CD40023204600961A46FFF7C2FC9D
:1054C000012840D1B4F81A22B4F8C811BDF8083048
:1054D0001344521A12049BB204D5EA1A12F4004F74
:1054E00018BF0B46A4F81A32D1E7013293B2A4F8E0
:1054F0001A3294F81D32002BB8D1B4F8CC31B4F87C
:105500001A22934204BF0133A4F81A32AEE794F88A
:10551000923030460394002B14BF08233E2384F8B6
:10552000B13001238DF80830FFF710F920460CF058
:1055300005F8002394F8200284F8043206F022F9DA
:10554000202384F8203205B0F0BD012006F0B0FB26
:1055500005B0BDE8F040FCF7CBBA90F80432042B5C
:1055600001D0D0210DE7002380F80432EBE7D621EB
:1055700007E7DA2105E700BF38030021F7B5044645
:1055800018B9E2213020FAF733FF072900F2BC8076
:10559000DFE801F00484464641BA33B706F06EFBFB
:1055A000C4E95201204601F0D1FBD4F83C01DC38BB
:1055B00006F06CFA10B940F27B21E3E720460BF0CD
:1055C000B2FD0546F8B9014620460BF02DFD00F16D
:1055D000F606D4F83C01B04209D2301A0321402823
:1055E00038BF402006F072FA051E18BF0125C4F826
:1055F0003C6120460BF0E1FD3DB1204603B0BDE823
:10560000F0400BF0DBBD0025F3E7D4E95223C4E9F9
:105610004C2303B0F0BD03B0BDE8F04004F0ACB8DB
:105620000BF043FD002307460E4684F8413106F097
:105630008FF80722A7FB023502FB0655D4F8342168
:105640000192D4F830219B18019A45EB0205D4F859
:10565000142132B157EA060203D0984271EB0502D9
:1056600016D2022284F84021D4F85021D4F854C133
:10567000121A6CEB010C94F860E1BEF1000F09D135
:10568000012A7CF1000E11DA204601F067FB05E0EB
:105690000122E7E7012A7CF1000CF5DB94F8100108
:1056A00006F070F8002384F85831B2E7984271EBA5
:1056B000050E0ED23E430CD01B1A65EB01019A4237
:1056C0007CEB010005DB012B71F10000A4BF1A4641
:1056D0008C460F49012394F81001914284F8593106
:1056E0004FF0000384F8383173EB0C03B8BF0A465F
:1056F00004F59C7106F0ECFA00288AD140F2EF61C3
:1057000040E74FF480713DE74FF482713AE700BF04
:105710000040420F2DE9F04104460E46154690F830
:10572000583103F0FF071BB10C273846BDE8F08164
:1057300001464E4806F038F820288046F4D057221B
:10574000394604F2111008F041F884F81081C4F8C9
:105750001461FF2384F8583136B1FEF7C1FC00F024
:105760000700013086F8F40102234FF00008A4F886
:10577000403184F8388107F0D9FB00F1BC0620469F
:105780000BF0D1FC0146B6B2002846D009F0ACFFC0
:1057900000F5CD61284689B207F082FB2844C4F8A1
:1057A0003C0105F0D5FF30184FF00106A4F8268023
:1057B00041F1000184F81861C4E9520120460BF060
:1057C000C9FC28B3A5F2F245314620460BF02CFC6B
:1057D0002D1AC4F81C514FF0FF356FF0004194F8BA
:1057E0001001D4E95223C4E95451002504F59C71F9
:1057F000C4E94A23C4E94C2384F8595142F2107297
:1058000006F066FA60BB40F2EB113020FAF7F0FDCB
:105810003046F63D0BF072FDDAE72046DFF85080A7
:105820000BF002FCF630C4F83C01B8F8000048B1B7
:10583000E08C38B1FEF754FCB8F80030B0FBF3F25E
:1058400002FB1300064405F083FF361841F1000106
:10585000C4E95261002DBED0AD1941F10001BEE78F
:10586000294620460BF0ACFC5FE700BF7D550001E8
:10587000740F0021F0B5002385B0CDE90033032378
:105880008DF806306846FBF775FA88B11F4E012384
:105890000027B3700223CDE902778DF80E3002A8FD
:1058A000FBF768FA0546C8B10023B37005B0F0BD38
:1058B00000980BF05DF9E5E790F8200206F098F803
:1058C00094F8200206F0BCF994F8200284F80452FF
:1058D00005F058FF202384F82032DBE7029B002BE1
:1058E000DDD093F82022202AD9D018884FF6FF73F4
:1058F0009842D9D00221FBF703FA04460028DBD1F5
:1059000040F237113020FAF773FD00BF740F002109
:10591000044B0022DA709A7042F210721A80FFF77C
:10592000A9BF00BF740F0021014BD870704700BFA2
:10593000740F002108B503F095F9044B5A688242B0
:105940002ABF9878002080F0010008BD740F002164
:10595000F0B5044685B090F8D33103F0FF05002B75
:105960006AD190F80432032B66D105F0F1FED4E938
:105970009023801A61EB0301012871F100035BDBC6
:105980006FF00103834275EB010104DA40F2E55147
:105990003020FAF72DFDE269B4F888300AB1B0FB87
:1059A000F2F2013313449BB2A4F81832B4F8CC31AC
:1059B000B4F818229B1A1BB2002B3DDD94F820028C
:1059C00006F016F8002837D0FF2384F81D32B4F80B
:1059D000C2300DF10E07B4F88850184E1D44B4F8CB
:1059E000C030013DED1AADB2336863B1B4F818129E
:1059F00000222046013989B29847B4F81832184479
:105A000080B2A4F81802B4F81832EB1A1B0413D4AD
:105A1000B4F8181200230122204689B20097FFF73C
:105A200011FA012808D1B4F81832BDF80E20134439
:105A30009BB2A4F81832D7E705B0F0BD38030021B7
:105A40002DE9F3410446062900F29E80DFE801F0CB
:105A5000042714242B3097004D4B9B7803F0FF0252
:105A600053B900920123B0F8CC11FFF7EBF930B134
:105A700040F21E7130202AE0042384F8043203F03F
:105A8000B9FC05F069FE0023B4F88820A4F85A3266
:105A9000A4F81A2284F81D3202B0BDE8F081032375
:105AA00080F80432F8E703F0E5F8C4E99201F3E77F
:105AB00011210088FBF724F900285ED094F8753096
:105AC000022B58D005D8012B08D0D621B420FAF7E4
:105AD0008FFC033B012BF8D81E3000E00A3085888C
